:020000040000FA
:04000000FAEF1AF009
:08000800056ED8CF06F0E950A7
:10001000076EEA50086EE150096EE2500A6ED95040
:100020000B6EDA500C6EE0500D6E000100500F6E3A
:100030000150106E0250116E0350126E0450136E78
:10004000F2AA26EF00F0F2B4F4EF01F09DA62CEF37
:1000500000F09EB61AEF02F09DAA32EF00F09EBAB1
:100060001FEF03F09DA838EF00F09EB83FEF04F0BB
:10007000A0A03EEF00F0A1B005EF02F00F50006E1F
:100080001050016E1150026E1250036E1350046E28
:100090000D50E06E0D8E0750E96E0850EA6E095063
:1000A000E16E0A50E26E0B50D96E0C50DA6E0550BC
:1000B00006C0D8FF1000FFFF0DAE62EF00F0F2CFD8
:1000C0000EF0F29EF76AE20FF66E000EF7220900BC
:1000D000FFFFF5500DAE6FEF00F00EBEF28E120076
:1000E000FFFF00C0C101C30302C2C60607C705C5A2
:1000F000C404CC0C0DCD0FCFCE0E0ACACB0BC90950
:1001000008C8D81819D91BDBDA1A1EDEDF1FDD1D5F
:100110001CDC14D4D515D71716D6D21213D311D18F
:10012000D010F03031F133F3F23236F6F737F535DF
:1001300034F43CFCFD3DFF3F3EFEFA3A3BFB39F90F
:10014000F83828E8E929EB2B2AEAEE2E2FEF2DEDDF
:10015000EC2CE42425E527E7E62622E2E323E1214F
:1001600020E0A06061A163A3A26266A6A767A5655F
:1001700064A46CACAD6DAF6F6EAEAA6A6BAB69A9CF
:10018000A86878B8B979BB7B7ABABE7E7FBF7DBDDF
:10019000BC7CB47475B577B7B67672B2B373B1710F
:1001A00070B05090915193535292965657975595DF
:1001B00094549C5C5D9D5F9F9E5E5A9A9B5B99598F
:1001C0005898884849894B8B8A4A4E8E8F4F8D4D5F
:1001D0004C8C4484854587474686824243834181CF
:1001E0008040FFFF0DAEF8EF00F0F2CF0EF0F29E70
:1001F000F76A0E0FF66E020EF7220900FFFFF550A8
:100200000DAE05EF01F00EBEF28E1200FFFF00C131
:10021000814001C0804101C0804100C1814001C0D6
:10022000804100C1814000C1814001C0804101C0C6
:10023000804100C1814000C1814001C0804100C1B6
:10024000814001C0804101C0804100C1814001C0A6
:10025000804100C1814000C1814001C0804100C196
:10026000814001C0804101C0804100C1814000C186
:10027000814001C0804101C0804100C1814001C076
:10028000804100C1814000C1814001C0804101C066
:10029000804100C1814000C1814001C0804100C156
:1002A000814001C0804101C0804100C1814000C146
:1002B000814001C0804101C0804100C1814001C036
:1002C000804100C1814000C1814001C0804100C126
:1002D000814001C0804101C0804100C1814001C016
:1002E000804100C1814000C1814001C0804101C006
:1002F000804100C1814000C1814001C0804100C1F6
:10030000814001C0804101C0804100C18140FFFFA8
:10031000F2CF0EF0F29EF76A2E0FF66E030EF72262
:100320000900FFFFF5500EBEF28E1200FFFF4B6179
:1003300074616E61202020202020202E2E2020504D
:100340003138204B6174616E6120364D2041726DF1
:100350002C204E6575726F6E6963732041472020B3
:100360002020202020202020245265766973696F88
:100370006E3A2034312E39202455580D0A000000E1
:100380000000FFFFF2CF0EF0F29EF76AA20FF66EAA
:10039000030EF7220900FFFFF5500EBEF28E120089
:1003A000FFFF4201035801795901545A01014B0BD7
:1003B000024F0C024305034402085503054502128F
:1003C000460C0256030D4E030D470E02510702C59F
:1003D00002124C2602CC03024103025306065203CA
:1003E00003C7030249020300FFFF71A0FEEF01F003
:1003F00072503F08D8A0FEEF01F0722A71806D2A7A
:10040000D8B46E2AF2943EEF00F0FFFF240E94124F
:10041000010EEC6FC66AC69A928A240EC66E000E52
:10042000C76E9E969D86010EF36FF46BE197A190C7
:100430003EEF00F0FFFFEC2DB1EF02F0010EF35D97
:10044000F90FD8B0AFEF02F0070FBCEF02F0C9CF41
:100450001AF11C5001011A5DD8B435EF02F09D96D7
:100460000001F36B41EF02F001018B94DB0E941657
:10047000020E0001F36F8B84210E006E002EFED75A
:100480008B94AFEF02F0C9CF1AF18B84210E006E6E
:10049000002EFED78B94030EF36FAFEF02F0C9CF9F
:1004A000F1F0F1513208D8A05AEF02F0F153D8A47C
:1004B00060EF02F0240E94129D96F36B69EF02F048
:1004C0008B84210E006E002EFED78B94F06B040EF1
:1004D000F36FAFEF02F0F051F02B340FE96EEA6AE0
:1004E000D8B0EA2AC9CFEFFF8B84210E006E002E10
:1004F000FED78B94F151F05DD8A483EF02F0F1C0E8
:10050000F4F0050EF36FAFEF02F0AFEF02F0EE5133
:10051000ED5DD8B09DEF02F0ED51ED2B200FE96EAF
:10052000EA6AD8B0EA2AEF50C96E8B84210E006EB9
:10053000002EFED78B94ABEF02F0F453D8B4A6EFA5
:1005400002F0070EF36FE197ABEF02F0240E941266
:100550009D96F36BE197AFEF02F0AFEF02F0B9EFCA
:1005600002F0EC53D8A4B7EF02F0B9EF02F0240E7A
:1005700094129E963EEF00F0FFFFE824990FF66E6E
:10058000050EF76ED8B0F72A0A00FFFFF550FA6E95
:100590000800FFFFF550F96E4E0486049E04D60451
:1005A0000A050E055A05FFFF01012351036A276F53
:1005B0002251006E2351000B036E0050286F296BEF
:1005C000266B256B246B2151245DD8B00CEF03F012
:1005D000000127C129F1010124511F25E96E000EF8
:1005E0002021EA6EEF50281900015BEC00F0016E4B
:1005F00001C027F1010124511F25E96E000E2021C1
:10060000EA6EEF5028190001F1EC00F00101291900
:10061000286F242BE3EF02F0266B000127C125F1A0
:1006200025C126F10101256B28512527000E26231F
:100630002551016E2651026E0001000CFFFFFFFFE5
:10064000EC510508D8A4FBEF03F0AB82000AD8A454
:100650002FEF03F0AB84000AD8B43EEF03F0AB9861
:10066000AB88F3510408D8B03DEF03F0F35107080D
:10067000D8A03DEF03F03EEF03F0F36B9EAA3EEFF0
:1006800003F0AE5001011E6F0001F351E30FD8B02B
:10069000F9EF03F01D0F12EF04F001011E2D55EFCD
:1006A00003F0010E0001F36F01010001F9EF03F007
:1006B0001C5001011E5DD8B463EF03F00001F36B21
:1006C00068EF03F00101030E0001F36F706A6F6AB7
:1006D000F9EF03F0F36BF9EF03F01EC1F1F0F15104
:1006E0003208D8A078EF03F0F153D8A47DEF03F0DF
:1006F000F36B706A6F6A80EF03F0F06B040EF36FB8
:10070000F9EF03F0F051F02B340FE96EEA6AD8B03C
:10071000EA2A1EC1EFFF01011E515008D8A493EF31
:1007200003F06E6A6D6A0001F151F05DD8A4ACEF80
:1007300003F00101206B340E1F6F0001F0C021F1A6
:1007400070C023F16FC022F1D3EC02F002C070F050
:1007500001C06FF01B0EF36FF9EF03F01EC1F5F04F
:100760001C0EF36FF9EF03F01EC1F6F07050F55D4B
:10077000D8A4C0EF03F06F50F65DD8B4C7EF03F014
:100780001D0EF36FF46BF16B9D88CBEF03F0F1C09E
:10079000F4F0050EF36F706A6F6AF9EF03F0F9EF8A
:1007A00003F0F9EF03F001011E53D8A4DDEF03F0CD
:1007B0000001F32BDFEF03F001010001F36BF9EF10
:1007C00003F001011E2DEDEF03F0010E0001F36FA8
:1007D000F46BE197F7EF03F001011E53D8A4F3EF98
:1007E00003F0F6EF03F00001F36B01010001F9EFF4
:1007F00003F00FEF04F0F46BE197EC6BF36B9EAA40
:10080000FFEF03F0AE5001011E6F1E2D0EEF04F03E
:10081000050E0001EC6F010EF36F010100019E9ABD
:100820003EEF00F0FFFFE824450FF66E080EF76E6E
:10083000D8B0F72A0A00FFFFF550FA6E0800FFFF54
:10084000F550F96E9A06B006D406DA0604079E073C
:100850009E079E07A607A607A607A607A607A60740
:10086000A607A607A607A607A607A607A607A60720
:10087000A607C207F207F207F2075C076807FFFF47
:10088000EC510508D8A4C0EF04F0F3511D08D8A41A
:100890005EEF04F0650E9EA84BEF04F0AD6E720E95
:1008A0009EA850EF04F0AD6E720E9EA855EF04F0B6
:1008B000AD6EF36BE1979D98BEEF04F0F35106081F
:1008C000D8A491EF04F0200EED25E96EEA6AD8B0C5
:1008D000EA2AEF507008D8A46EEF04F0ED51ED2B2A
:1008E000200FE96EEA6AD8B0EA2AEFCF2DF10101B4
:1008F0002D519EA879EF04F0AD6E0001EE51ED5D33
:10090000D8A08FEF04F0F453D8B48DEF04F0070EA5
:10091000F36FE1979D988FEF04F0190EF36FBEEF20
:1009200004F0F3511908D8A4A4EF04F070C02CF11E
:1009300001012D6B70509EA89BEF04F0AD6E1A0E56
:100940000001F36FBEEF04F0F3511A08D8A4BCEF16
:1009500004F06F5001012C6F7050000B2D6F2C5163
:100960009EA8B0EF04F0AD6E0001F36BE1979D9887
:10097000706A6F6ABEEF04F09D98E197C1EF04F0D2
:100980009D989E983EEF00F0FFFFFF0E926E040EC2
:10099000C16EFF0E936E946E36EF1BF0FFFF0101E8
:1009A0000551016A045DD8B0DAEF04F00451006E1D
:1009B000E7EF04F0006A080E066F043700360551B1
:1009C000005CD8B0006E0136062FDDEF04F00001A8
:1009D000000CFFFFFFFF6A6A696A7190726A6C6AB5
:1009E0006B6AD190C40ED56EF28A8CEF1BF0FFFFBC
:1009F000E191E26BFE6BFE512308D8A008EF05F0F1
:100A0000FEC0E1FF030EE26EE76AFE2BFBEF04F08F
:100A1000FE6BFE512308D8A018EF05F0FEC0E1FFE1
:100A2000030EE26E800EE76E060EFE2709EF05F05C
:100A3000FE6BFE510F08D8A029EF05F0240EFE250D
:100A4000FF6FFFC0E1FF030EE26EE76AFE2B19EFB6
:100A500005F0719E8EEF1BF0FFFFC19CC250380B5A
:100A60008109C26EE195E76BE86BEB6B90EF1BF0D1
:100A7000FFFF240E9412C66AC69A928A240EC66E8E
:100A8000000EC76E240E9412AB98AB88706A6F6A22
:100A9000FF0EED6FEE6BF06FF16BF36BF46BE197A4
:100AA000EC6BB70EB116BA6A040EBA6EA190A080B4
:100AB0009D8AF29892EF1BF0FFFF7198DD6B736ACD
:100AC000746A719271947196766A000E016E0609CD
:100AD000CA6EFF0ECB6E8A82ED0E931694EF1BF05A
:100AE000FFFFD89A1F50C96ED88AC7A075EF05F0CE
:100AF000D89AC9501E6ED88AC790000CFFFFFFFF1E
:100B0000809A0000020E1F6E70EC05F004C11FF009
:100B100070EC05F005C11FF070EC05F00000808A54
:100B2000080E006E002EFED7000CFFFFFFFFFE51E7
:100B3000006E0052D8B4B3EF05F0010E005CD8B4DB
:100B4000B6EF05F0020E005CD8B4BAEF05F0030E64
:100B5000005CD8B4BEEF05F0040E005CD8B4C2EF60
:100B600005F0C6EF05F0686ACAEF05F0040E686E7E
:100B7000CAEF05F0080E686ECAEF05F0100E686E39
:100B8000CAEF05F0140E686ECAEF05F0180E686E15
:100B9000CAEF05F001010031036E0001FF31026E62
:100BA00003320232033202320250666EFF51070BEB
:100BB000676E673A6736E00E671668C004F166C074
:100BC00005F17FEC05F0010E68240101016F0001C1
:100BD00001C104F167C005F17FEC05F0000CFFFFD7
:100BE000FFFF0101036B0001FF390101036F0337B0
:100BF0000337C00E03170001FE51010103132A0E33
:100C0000046F000103C105F17FEC05F00101036BE6
:100C1000010E005D006E0034036F03370337F80EDA
:100C20000317010E025D0313290E046F000103C1B7
:100C300005F17FEC05F00101036B010E015D036F0F
:100C4000280E046F000103C105F17FEC05F083EF6E
:100C500006F0FFFF809A0000050E1F6E70EC05F095
:100C60000F0E1F6E70EC05F0E00E1F6E70EC05F0BD
:100C7000FEC01FF070EC05F00000808AB6EF06F0B1
:100C8000FFFFFF0E1D6E929A938094849496948831
:100C9000949A949C948E808A8286F19CF288C00EED
:100CA000C76E210EC66EC66AC69A949A94889496A8
:100CB000200EC66E000EC76E809A00000000C00EA7
:100CC0001F6E70EC05F00000808AFE6B0101006B66
:100CD00000011CC0FFF096EC05F0020EFE6F010152
:100CE000006B00011CC0FFF096EC05F0010EFE6FDA
:100CF000FF6B020E0101006F030E016F020E026F07
:100D00000001F0EF05F0600E0101046F200E056F89
:100D100000017FEC05F0700E0101046F200E056FDD
:100D200000017FEC05F0200E0101046FBF0E056F7E
:100D300000017FEC05F0210E0101046FE00E056F4C
:100D400000017FEC05F0240E0101046FFF0E056F1A
:100D500000017FEC05F0250E0101046FE00E056F28
:100D600000017FEC05F0FE6B29EF06F02B0E010170
:100D7000046F030E056F00017FEC05F01CC01DF031
:100D8000A8EF1BF0FFFFE185180E016EC250C70BE4
:100D90000110C26EC19E530E006E002EFED7C2849B
:100DA000D4EF1BF0FFFFE1A5EDEF06F0E195C2B433
:100DB000D7EF06F0C4CFE6F0E6C0FEF0FE3BE65308
:100DC000D8A4E5EF06F0010EE66FFE53D8A4EBEFD2
:100DD00006F0010EFE6FEFEF06F0E66BFE6B815042
:100DE000C00B0101016F0001FE510F0B0101011148
:100DF0000001FE6F81A0FEEF06F0FE8B80A802EFDF
:100E000007F0FE89EB51070B000AD8B49BEF07F0FF
:100E1000FE51E519FF6F0101009300910001EB51B4
:100E2000070B006E030E005CD8B42DEF07F0040E24
:100E3000005CD8B43BEF07F0050E005CD8B449EF76
:100E400007F0060E005CD8B457EF07F0070E005C01
:100E5000D8B465EF07F073EF07F0FFA733EF07F0A3
:100E6000010100810001FEA739EF07F001010083B5
:100E7000000173EF07F0FFA941EF07F001010081C6
:100E80000001FEA947EF07F001010083000173EFA5
:100E900007F0FFAB4FEF07F0010100810001FEAB4F
:100EA00055EF07F001010083000173EF07F0FFAD7C
:100EB0005DEF07F0010100810001FEAD63EF07F077
:100EC00001010083000173EF07F0FFAF6BEF07F044
:100ED000010100810001FEAF71EF07F00101008305
:100EE000000173EF07F0E72BD8A478EF07F0E707CE
:100EF000010100A19AEF07F000A38CEF07F00001B9
:100F0000E751E95DD8B087EF07F0E7C0E9F0E9C045
:100F1000E8F096EF07F001010001E751EA5DD8B073
:100F200094EF07F0E7C0EAF0EAC0E8F0E76B9BEF68
:100F300007F001010001FEC0E5F0E5EF1BF0FFFF47
:100F40009EA2DFEF07F001C103F001010051026F23
:100F5000000101C103F1FFC004F1070E0101066F9A
:100F60008A9204AFB7EF07F08A88B8EF07F08A9843
:100F7000D89004378A82D890053781AAC3EF07F04A
:100F80000581C4EF07F005910653D8A4CCEF07F014
:100F90000551016ECFEF07F00607B0EF07F0000133
:100FA00003C1EAFF02C1E9FF01C0EFFFB70ECC6E3B
:100FB0009E92010E016EE3EF07F0E3EF07F0000EE3
:100FC000016EE3EF07F0000CFFFFFFFFDD51006E45
:100FD0000052D8B42AEF08F0010E005CD8B448EFF4
:100FE00008F0020E005CD8B458EF08F0030E005C65
:100FF000D8B469EF08F0040E005CD8B4B4EF08F080
:10100000050E005CD8B4E2EF08F0060E005CD8B420
:10101000F3EF08F0070E005CD8B415EF09F0080EE6
:10102000005CD8B426EF09F0090E005CD8B497EF45
:1010300009F00A0E005CD8B4A7EF09F00B0E005CB3
:10104000D8B4B7EF09F00C0E005CD8B4CAEF09F0C1
:10105000DBEF09F0000E71BA010E0108D8A434EFDD
:1010600008F0DD6BDBEF09F071A83DEF08F0090E29
:10107000DD6FDBEF09F048EF08F07450735CD8B017
:1010800046EF08F0010EDD6F48EF08F0DBEF09F0E6
:10109000FF6B0101016BDF0E006F00019FEC07F099
:1010A0000152D8B456EF08F0020EDD6FDBEF09F005
:1010B000010EFF6F0101016BDF0E006F00019FEC5D
:1010C00007F00152D8B467EF08F0030EDD6FDBEFD5
:1010D00009F07450735CD8B099EF08F07350732A1C
:1010E000790FE96EEA6AD8B0EA2AEF50DF6F040E92
:1010F000DD6FDFC0FFF0FF3BFF510F0B80090101E7
:10110000006F000100C102F1D89001010231021B01
:10111000000102C103F10101033B02510319500B0D
:10112000016E00510118016E000101C0E0F0B4EF42
:1011300008F071A2A7EF08F0766A786A736A746A99
:10114000DE6B060EDD6FDBEF09F0B4EF08F07350D5
:10115000745CD8B0B2EF08F00C0EDD6FDBEF09F075
:10116000B4EF08F0DBEF09F0E0C0FFF00101016B24
:10117000E00E006F00019FEC07F00152D8B4E0EFE1
:1011800008F0DFC0FFF0FF510F0B80090101006F75
:10119000000100C102F1D89001010231021B0001DF
:1011A00002C103F10101033B02510319500B016E0F
:1011B00000510118016E000101C0E0F0050EDD6F65
:1011C000DBEF09F0E0C0FFF00101016BE00E006F02
:1011D00000019FEC07F00152D8B4F1EF08F0030EC4
:1011E000DD6FDBEF09F0FF0EFF6F0101016BE00E19
:1011F000006F00019FEC07F00152D8B413EF09F023
:10120000E03D05EF09F009EF09F0080EDD6F13EF7F
:1012100009F0DE2BDE510F08D8B013EF09F071860C
:1012200071927184DD6BDBEF09F0FF0EFF6F01013E
:10123000016BE00E006F00019FEC07F00152D8B483
:1012400024EF09F0080EDD6FDBEF09F0FF0EFF6FF2
:101250000101016BFE0E006F00019FEC07F00152CF
:10126000D8B495EF09F0E0C0FFF0FEC000F1FFC078
:1012700002F1D89001010231021B000102C103F109
:101280000101033B02510319500B016E0152D8B406
:101290004EEF09F0000E016E71EF09F00001FF3B07
:1012A000FF51F00BDF6F00C102F1D8900101023154
:1012B000021B000102C103F10101033B02510319AA
:1012C000500B016E0152D8B46AEF09F0000E016EA6
:1012D00071EF09F000510F0B0001DF13010E016ED9
:1012E00001010152D8B477EF09F078EF09F0718667
:1012F0007650762AAB0FE96EEA6AD8B0EA2A000186
:10130000DFC0EFFFDF5178267750765CD8A493EFEB
:1013100009F071927852D8B48FEF09F07186718418
:10132000DD6B95EF09F0070EDD6FDBEF09F0FF6B6A
:101330000101016BDF0E006F00019FEC07F001520D
:10134000D8B4A5EF09F00A0EDD6FDBEF09F0FF6BF3
:101350000101016BDF0E006F00019FEC07F00152ED
:10136000D8B4B5EF09F00B0EDD6FDBEF09F0FF6BC2
:101370000101016BDF0E006F00019FEC07F00152CD
:10138000D8B4C8EF09F08A88CC6A9E927198DD6B58
:10139000DBEF09F0AF0EFF6F0101016BDF0E006F95
:1013A00000019FEC07F00152D8B4D9EF09F0736A3D
:1013B000DD6BDBEF09F0EFEF1BF0FFFF010EEC5DE3
:1013C000FB0FD8B052EF0AF0050F54EF0AF0F29C71
:1013D000F29EF2BEE8EF09F0F3510508D8B4F6EF3B
:1013E00009F0F3510708D8A411EF0AF001010A53DC
:1013F000D8A401EF0AF00001E197F36B11EF0AF0B6
:101400000101000120C0C9FFE187010EED6F0AC193
:10141000EEF0060EF36F8B84210E006E002EFED7C9
:101420008B94C00EF21252EF0AF0F29CF29EF2BEC2
:1014300016EF0AF0F3510508D8B424EF0AF0F3517F
:101440000708D8A44EEF0AF001010A53D8A42FEFE1
:101450000AF00001E197F36B4EEF0AF00101000181
:10146000E187ED6B0AC1EEF0060EF36F156AF2BE6E
:10147000158EF29E0101206B200E1F6F0001EEC041
:1014800021F170C023F16FC022F1D3EC02F015BE40
:10149000F28E02C070F001C06FF09D88C00EF21293
:1014A00052EF0AF0000CFFFFFFFFF2CF0EF0F29EAA
:1014B000E824D30FF66E140EF76ED8B0F72A0A00A0
:1014C000FFFFF550FA6E0800FFFFF5500EBEF28EDA
:1014D000F96ECE13A414A414A4142A14FFFF01015E
:1014E0000EAD83EF0AF00EBF83EF0AF00001E86B48
:1014F000E76BE96BEA6B01010E51470B0001EB6FE3
:1015000059EF0BF001010EAB17EF0BF00EB717EF11
:101510000BF00EBF17EF0BF00F930F910EB993EF77
:101520000AF09AEF0AF00EA799EF0AF00F819AEFEE
:101530000AF00F830E51070B006E030E005C0001D2
:10154000D8B4B9EF0AF0040E005CD8B4CBEF0AF0BF
:10155000050E005CD8B4DDEF0AF0060E005CD8B4CE
:10156000EFEF0AF0070E005CD8B401EF0BF014EFB8
:101570000BF001010FA1C1EF0AF080869296C9EF2E
:101580000AF00FA3C8EF0AF080969296C9EF0AF00E
:10159000928615EF0BF001010FA1D3EF0AF08088BE
:1015A0009298DBEF0AF00FA3DAEF0AF08098929896
:1015B000DBEF0AF0928815EF0BF001010FA1E5EFC8
:1015C0000AF081809390EDEF0AF00FA3ECEF0AF0A0
:1015D00081909390EDEF0AF0938015EF0BF00101ED
:1015E0000FA1F7EF0AF081869396FFEF0AF00FA3A1
:1015F000FEEF0AF081969396FFEF0AF0938615EFBF
:101600000BF001010FA109EF0BF0818E939E11EFFA
:101610000BF00FA310EF0BF0819E939E11EF0BF0D8
:10162000938E15EF0BF00001010158EF0BF00E51F6
:101630000608D8A420EF0BF0819E939E818C939C8A
:101640000E510708D8A429EF0BF0819C939C818E42
:10165000939E0E510808D8A432EF0BF0819E939E02
:10166000819C939C0E510908D8A43BEF0BF0818E0E
:10167000939E818C939C0E510A08D8A444EF0BF0E2
:10168000938E938C58EF0BF00E2D4DEF0BF0000165
:10169000EB51070B4009EB6F01010E510208D8A472
:1016A00058EF0BF00001EB51070B0809EB6F01013C
:1016B0000001BFEF0EF0FFFF0101176B166B000179
:1016C00093CF15F1939C819C060E1F6E70EC05F074
:1016D000010110391F6E1F361F36C00E1F16000184
:1016E00070EC05F001011151E96E000112C1EAFF31
:1016F0001E500F0BEF6E70EC05F001011351E96EF7
:10170000000114C1EAFF1EC0EFFF818C0000000041
:1017100015C193FFEDEF0EF0FFFF010EEA6E0B0E09
:10172000E96EEF50D8B4A4EF0BF00C0E016E006A16
:10173000002EFED7012EFBD7F70E006E002EFED72F
:1017400000000000EF2EF1D7F9EF12F0FFFF345048
:10175000006E420E005CD8B414EF0CF0580E005C22
:10176000D8B432EF0CF0590E005CD8B451EF0CF045
:101770005A0E005CD8B470EF0CF04B0E005CD8B47D
:101780008AEF0CF04F0E005CD8B4E9EF0CF0430E7A
:10179000005CD8B448EF0DF0440E005CD8B4D4EF30
:1017A0000DF0550E005CD8B47FEF0EF0450E005CD6
:1017B000D8B4FFEF0EF0560E005CD8B4C2EF0FF0B5
:1017C0004E0E005CD8B4F7EF0FF0C50E005CD8B435
:1017D000E3EF10F04C0E005CD8B4A6EF11F0CC0E85
:1017E000005CD8B406EF12F0410E005CD8B44AEFAA
:1017F00012F0530E005CD8B489EF12F0520E005C68
:10180000D8B4C6EF12F0470E005CD8B42EEF13F038
:10181000C70E005CD8B46BEF13F0490E005CD8B46F
:10182000AFEF13F0ECEF13F0F42D19EF0CF022EF03
:101830000CF0F46B01010A6B0001DDEC09F0F76BB1
:10184000F3EF13F0620E206E040E216E130E226E63
:10185000F46B030E01010A6F0001DDEC09F0F76B78
:10186000F3EF13F0F42D37EF0CF040EF0CF0F46BC6
:1018700001010A6B0001DDEC09F0F76BF3EF13F0E7
:10188000780E206EFF51E96E00C1EAFFEF6A010E8B
:1018900001010A6F0001DDEC09F0010EF76FF3EFB3
:1018A00013F0F42D56EF0CF05FEF0CF0F46B010128
:1018B0000A6B0001DDEC09F0F76BF3EF13F0790E22
:1018C000206EFF51E96E00C1EAFFEF6A010E0101CF
:1018D0000A6F0001DDEC09F0020EF76FF3EF13F071
:1018E000F42D75EF0CF07EEF0CF0F46B01010A6B38
:1018F0000001DDEC09F0F76BF3EF13F07A0E206EC8
:10190000F46B010E01010A6F0001DDEC09F0F76BC9
:10191000F3EF13F0F4510B08D8B498EF0CF0F46B1C
:1019200001010A6B0001DDEC09F0F76BF3EF13F036
:101930006B0E206E01010751E96E000108C1EAFF3C
:1019400035C0EFFF08C103F001010751E96E000146
:1019500008C1EAFFEF52D8B4BBEF0CF008C103F0A6
:1019600001010751E96E000108C1EAFFEF500608C6
:10197000D8B0C2EF0CF001010751E96E000108C1B7
:10198000EAFFEF6A08C103F001010751E96E0001A7
:1019900003C0EAFFEF50216E01010551E96E00011D
:1019A00006C1EAFF4B0EEF6E01010151E96E000125
:1019B00002C1EAFF0B0EEF6E01010351E96E000157
:1019C00004C1EAFF010EEF6EE199030EF76FF3EF2A
:1019D00013F0F4510C08D8B4F7EF0CF0F46B0101DC
:1019E0000A6B0001DDEC09F0F76BF3EF13F06F0EFB
:1019F000206E01010751E96E000108C1EAFF35C000
:101A0000EFFF08C103F001010751E96E000108C1B1
:101A1000EAFFEF52D8B41AEF0DF008C103F001014C
:101A20000751E96E000108C1EAFFEF500608D8B07F
:101A300021EF0DF001010751E96E000108C1EAFF35
:101A4000EF6A08C103F001010751E96E000103C00C
:101A5000EAFFEF50216E01010551E96E000106C158
:101A6000EAFF4F0EEF6E01010151E96E000102C164
:101A7000EAFF0C0EEF6E01010351E96E000104C193
:101A8000EAFF010EEF6EE199030EF76FF3EF13F02B
:101A9000F4510508D8B456EF0DF0F46B01010A6B50
:101AA0000001DDEC09F0F76BF3EF13F0630E206E2D
:101AB00035C009F101010751E96E000108C1EAFFD3
:101AC000010109517F0BEF6E000108C103F0010114
:101AD0000751E96E000108C1EAFFEF52D8B47EEF6A
:101AE0000DF008C103F001010751E96E000108C1C2
:101AF000EAFFEF500608D8B082EF0DF0216A226AA3
:101B0000A1EF0DF009C121F008C103F00101075157
:101B1000E96E000108C1EAFFEFCF0AF10AC10EF138
:101B200001010F6B010E0E5D060DF3500F25000134
:101B3000E46FE4C0E1FF030EE26EE750016E01C006
:101B400022F0E199010109517F08D8A0B5EF0DF00D
:101B5000000101010551E96E000106C1EAFF430ED3
:101B6000EF6EE189BEEF0DF00101000101010551A9
:101B7000E96E000106C1EAFFC30EEF6E02C103F079
:101B800001010151E96E000103C0EAFF050EEF6E8D
:101B900001010351E96E000104C1EAFF020EEF6E7C
:101BA000030EF76FF3EF13F0F4510208D8B4E2EF2D
:101BB0000DF0F46B01010A6B0001DDEC09F0F76B2D
:101BC000F3EF13F0640E206E01010751E96E00017E
:101BD00008C1EAFF35C0EFFF08C103F0010107515A
:101BE000E96E000108C1EAFFEF52D8B405EF0EF02C
:101BF00008C103F001010751E96E000108C1EAFFC5
:101C0000EF500608D8B021EF0EF001010751E96E40
:101C1000000108C1EAFFEF6A010E0101096F0951D5
:101C20000708D8A01EEF0EF0200E0925E96EEA6A1B
:101C3000D8B0EA2AEF6A092B0FEF0EF074EF0EF01E
:101C4000000101010751E96E000108C1EAFFEF50F0
:101C5000216E08C103F001010751E96E000108C1BE
:101C6000EAFFEFCF0AF10AC10EF101010F6B010E7D
:101C70000E5D060DF3500F250001E46FE4C0E1FF97
:101C8000030EE26EE750016E01C022F0E42BE4C0C7
:101C9000E1FF030EE26EE750016E01C023F0E42B7A
:101CA000E4C0E1FF030EE26EE750016E01C024F0D4
:101CB000E42BE4C0E1FF030EE26EE750016E01C0C9
:101CC00025F0E42BE4C0E1FF030EE26EE750016E65
:101CD00001C026F0E42BE4C0E1FF030EE26EE75002
:101CE000016E01C027F001010001F46B080E010133
:101CF0000A6F0001DDEC09F0F76BF3EF13F0F4511C
:101D00000308D8B48DEF0EF0F46B01010A6B0001EB
:101D1000DDEC09F0F76BF3EF13F0750E206E0101A7
:101D20000751E96E000108C1EAFF35C0EFFF08C1A5
:101D300003F001010751E96E000108C1EAFFEF520B
:101D4000D8B4B8EF0EF0010E0101096F0951040873
:101D5000D8A0B5EF0EF0200E0925E96EEA6AD8B0DA
:101D6000EA2AEF6A092BA6EF0EF0F4EF0EF000015D
:101D7000216A36C00AF10AC10EF16EEF0AF0E5C021
:101D800022F0EBADCAEF0EF0E7C023F0E8C024F07C
:101D9000F3EF0EF0EB51F80B0808D8A4D5EF0EF0D6
:101DA000E6C023F0246AF3EF0EF001010A51280B7C
:101DB0002808D8A4F0EF0EF00A51070BFF0F0C6FA4
:101DC00000010CC110F10101126B230E116F146B95
:101DD000240E136F00015BEF0BF0F3EF0EF0010127
:101DE000236A246A000101010001F46B050E010160
:101DF0000A6F0001DDEC09F0F76BF3EF13F0F4511B
:101E00000208D8B40DEF0FF0F46B01010A6B00016A
:101E1000DDEC09F0F76BF3EF13F0650E206E0101B6
:101E20000751E96E000108C1EAFF35C0EFFF08C1A4
:101E300003F001010751E96E000108C1EAFFEF500C
:101E40000F08D8B431EF0FF008C103F001010751BA
:101E5000E96E000108C1EAFFEF508F08D8A46BEFCC
:101E60000FF001010751E96E000108C1EAFFEF50D0
:101E7000216E08C103F001010751E96E000108C19C
:101E8000EAFFEF507F08D8A062EF0FF071AE59EF74
:101E90000FF001010A6B240E0A250001E46FE4C073
:101EA000E1FF030EE26EE750016E01C022F060EF29
:101EB0000FF001010751E96E000108C1EAFFEF6A66
:101EC00069EF0FF001010751E96E000108C1EAFF57
:101ED000EF6A72EF0FF001010751E96E000108C1CE
:101EE000EAFFEF6A08C103F001010751E96E000142
:101EF00008C1EAFFEF52D8B4A5EF0FF0030E0101BD
:101F0000096F09511108D8A0A2EF0FF0200E092582
:101F1000016E036AD8B0032A01500A6F000103C0A2
:101F20000BF1E42BE4C0E1FF030EE26EE750016E1B
:101F30000BC1EAFF0AC1E9FF01C0EFFF0101092B54
:101F400081EF0FF0B7EF0FF00001010E0101096FF3
:101F500009511108D8A0B7EF0FF0200E0925E96E3E
:101F6000EA6AD8B0EA2AEF6A092BA8EF0FF000015D
:101F7000F46B120E01010A6F0001DDEC09F0F76B42
:101F8000F3EF13F0F4510308D8B4D0EF0FF0F46B73
:101F900001010A6B0001DDEC09F0F76BF3EF13F0C0
:101FA000760E206E01010751E96E000108C1EAFFBB
:101FB00035C0EFFF01010551E96E000106C1EAFFDE
:101FC000560EEF6E01010151E96E000102C1EAFFF8
:101FD000030EEF6E01010351E96E000104C1EAFF37
:101FE0000C0EEF6EE189030EF76FF3EF13F0F4516F
:101FF0000308D8B405EF10F0F46B01010A6B00017F
:10200000DDEC09F0F76BF3EF13F06E0E206E352C5C
:102010004CEF10F0010E0101096F09510608D8A01C
:1020200038EF10F0200E0925016E036AD8B0032A9C
:1020300001500A6F000103C00BF109C10EF101014B
:102040000F6B010E0E5D060DF3500F250001E46FBE
:10205000E4C0E1FF030EE26EE750016E0BC1EAFF40
:102060000AC1E9FF01C0EFFF0101092B0DEF10F0DC
:10207000070E096F09510C08D8A049EF10F0200E87
:102080000925E96EEA6AD8B0EA2AEF6A092B3AEF25
:1020900010F0D8EF10F0000135500208D8A468EF16
:1020A00010F0E3C021F0020E0101096F09510C0884
:1020B000D8A065EF10F0200E0925E96EEA6AD8B0C5
:1020C000EA2AEF6A092B56EF10F0D8EF10F0000162
:1020D00035500308D8A4C6EF10F0010E0101096FB6
:1020E00009510608D8A0C3EF10F0D8900935FF0FAA
:1020F000200F016E036AD8B0032A01500C6F000153
:1021000003C00DF109C10EF1010E01010F6F010EA7
:102110000E5D060DF3500F250001E46FE4C0E1FFF2
:10212000030EE26EE750016E0DC1EAFF0CC1E9FF3C
:1021300001C0EFFFD89001010935200F016E036A3D
:10214000D8B0032A01500B6F000103C00CF109C184
:102150000EF1020E01010F6F010E0E5D060DF35020
:102160000F250001E46FE4C0E1FF030EE26EE750CB
:10217000016E0CC1EAFF0BC1E9FF01C0EFFF0101D5
:10218000092B70EF10F0D8EF10F00001010E0101E3
:10219000096F09510C08D8A0D8EF10F0200E0925BE
:1021A000E96EEA6AD8B0EA2AEF6A092BC9EF10F0A3
:1021B0000001F46B0D0E01010A6F0001DDEC09F066
:1021C000F76BF3EF13F0F4510208D8B4F1EF10F00D
:1021D000F46B01010A6B0001DDEC09F0F76BF3EF22
:1021E00013F0E50E206E01010751E96E000108C1F0
:1021F000EAFF35C0EFFF08C103F001010751E96EA6
:10220000000108C1EAFFEF500F08D8B415EF11F034
:1022100008C103F001010751E96E000108C1EAFF9E
:10222000EF508F08D8A44FEF11F001010751E96E6C
:10223000000108C1EAFFEF50216E08C103F001015F
:102240000751E96E000108C1EAFFEF507F08D8A0EE
:1022500046EF11F071AE3DEF11F001010A6B340E43
:102260000A250001E46FE4C0E1FF030EE26EE750CF
:10227000016E01C022F044EF11F001010751E96E37
:10228000000108C1EAFFEF6A4DEF11F001010751AB
:10229000E96E000108C1EAFFEF6A56EF11F0010193
:1022A0000751E96E000108C1EAFFEF6A08C103F0B7
:1022B00001010751E96E000108C1EAFFEF52D8B4ED
:1022C00089EF11F0030E0101096F09511108D8A01F
:1022D00086EF11F0200E0925016E036AD8B0032A9B
:1022E00001500A6F000103C00BF1E42BE4C0E1FFD1
:1022F000030EE26EE750016E0BC1EAFF0AC1E9FF6F
:1023000001C0EFFF0101092B65EF11F09BEF11F008
:102310000001010E0101096F09511108D8A09BEFBE
:1023200011F0200E0925E96EEA6AD8B0EA2AEF6AB0
:10233000092B8CEF11F00001F46B120E01010A6FF2
:102340000001DDEC09F0F76BF3EF13F0F451260810
:10235000D8B4B4EF11F0F46B01010A6B0001DDECAD
:1023600009F0F76BF3EF13F06C0E206E01010751CB
:10237000E96E000108C1EAFF35C0EFFF08C103F0B4
:1023800001010751E96E000108C1EAFFEF52D8B41C
:10239000D7EF11F008C103F001010751E96E000108
:1023A00008C1EAFFEF500608D8B0DFEF11F00101D5
:1023B0000751E96E000108C1EAFFFF0EEF6E08C188
:1023C00003F001010751E96E000103C0EAFFEF507D
:1023D000216E01010551E96E000106C1EAFF4C0EB4
:1023E000EF6E01010151E96E000102C1EAFF260E04
:1023F000EF6E01010351E96E000104C1EAFF010E15
:10240000EF6EE189030EF76FF3EF13F0F451030859
:10241000D8B414EF12F0F46B01010A6B0001DDEC8B
:1024200009F0F76BF3EF13F0EC0E206E352C3FEF55
:1024300012F001010751E96E000108C1EAFFEF6ADD
:10244000010E216E01010551E96E000106C1EAFF8E
:10245000CC0EEF6E01010151E96E000102C1EAFFED
:10246000030EEF6E01010351E96E000104C1EAFFA2
:10247000010EEF6EE199030EF76F48EF12F0216A3B
:10248000F46B020E01010A6F0001DDEC09F0F76B3D
:10249000F3EF13F0F4510308D8B458EF12F0F46BD3
:1024A00001010A6B0001DDEC09F0F76BF3EF13F0AB
:1024B000610E206E3552D8A462EF12F0E193216ACA
:1024C00065EF12F0E183010E216E01010751E96E03
:1024D000000108C1EAFFEF6A01010551E96E000140
:1024E00006C1EAFF410EEF6E01010151E96E0001E4
:1024F00002C1EAFF030EEF6E01010351E96E000114
:1025000004C1EAFF010EEF6EE189030EF76FF3EFEE
:1025100013F0F4510608D8B497EF12F0F46B0101F0
:102520000A6B0001DDEC09F0F76BF3EF13F0730EAB
:10253000206E01010751E96E000108C1EAFF35C0B4
:10254000EFFF01010751E96E000108C1EAFFEF50FA
:10255000216E01010551E96E000106C1EAFF530E2B
:10256000EF6E01010151E96E000102C1EAFF060EA2
:10257000EF6E01010351E96E000104C1EAFF050E8F
:10258000EF6EE189030EF76FF3EF13F0F4510308D8
:10259000D8B4D4EF12F0F46B01010A6B0001DDEC4A
:1025A00009F0F76BF3EF13F001010751E96E000139
:1025B00008C1EAFF35C0EFFF3652D8A4E3EF12F0AE
:1025C000E19BE4EF12F0E18B08C103F00101075138
:1025D000E96E000108C1EAFFEF501808D8A4FEEF29
:1025E00012F0080E01010A6FFA0E0B6F00018CEF5A
:1025F0000BF001010A2FF8D7FF000001720E206EC8
:1026000001010751E96E000108C1EAFFEF50216E98
:10261000226AE1BB222A01010551E96E000106C1CF
:10262000EAFF520EEF6E01010151E96E000102C195
:10263000EAFF030EEF6E01010351E96E000104C1D0
:10264000EAFF020EEF6EE199030EF76FF46B0101E2
:102650000A6F0001DDEC09F0F3EF13F0F4510E08FE
:10266000D8B43CEF13F0F46B01010A6B0001DDEC10
:1026700009F0F76BF3EF13F0670E206E01010751BD
:10268000E96E000108C1EAFF35C0EFFF0101075103
:10269000E96E000108C1EAFFEF50216E010105510A
:1026A000E96E000106C1EAFF470EEF6E010101511C
:1026B000E96E000102C1EAFF0E0EEF6E0101035147
:1026C000E96E000104C1EAFF010EEF6EE189030E1D
:1026D000F76FF3EF13F0F4510308D8B479EF13F068
:1026E000F46B01010A6B0001DDEC09F0F76BF3EF0D
:1026F00013F0E70E206E352CA4EF13F00101075103
:10270000E96E000108C1EAFFEF6A010E216E0101C6
:102710000551E96E000106C1EAFFC70EEF6E010127
:102720000151E96E000102C1EAFF030EEF6E0101E3
:102730000351E96E000104C1EAFF010EEF6EE19959
:10274000030EF76FADEF13F0216AF46B020E010177
:102750000A6F0001DDEC09F0F76BF3EF13F0F451B1
:102760000208D8B4BDEF13F0F46B01010A6B00014D
:10277000DDEC09F0F76BF3EF13F0690E206E010149
:102780000751E96E000108C1EAFF35C0EFFF010102
:102790000751E96E000108C1EAFFEF50216E010107
:1027A0000551E96E000106C1EAFF490EEF6E010115
:1027B0000151E96E000102C1EAFF020EEF6E010154
:1027C0000351E96E000104C1EAFF020EEF6EE189D8
:1027D000030EF76FF3EF13F0F46B01010A6B0001C6
:1027E000DDEC09F0F76B17EF14F0FFFFF751FB0F6B
:1027F000D8B0DCEF15F0050FDEEF15F0F453D8B4C8
:1028000017EF14F00101006BF80E0001FF6F0101DA
:10281000026BF90E016F046BFA0E036F066BFB0E71
:10282000056F086BFC0E076F0001A6EF0BF0DCEFE5
:1028300015F0E1B751EF14F0F851F825F825FE6FC7
:102840001CC020F0FE51C1EC01F0016E01C021F06E
:10285000010EFE25C1EC01F0020F226E010EFE25D5
:10286000C1EC01F0016E01C023F0020EFE25C1ECA7
:1028700001F0016E01C024F0FE51C1EC01F0200F07
:10288000256EF8511508D8A049EF14F0F82B4BEF3E
:1028900014F0F46BF76B060E01010A6F0001DDEC1A
:1028A00009F0DCEF15F0E1B7BBEF14F0FE6BFE5161
:1028B0001308D8A0B7EF14F0200EFE25016E036AAE
:1028C000D8B0032A0150FF6F03C000F1F851F82B74
:1028D0000101016F000101C102F11CC003F10101FE
:1028E00002510D08D8A486EF14F0000103C104F1D1
:1028F0000A0E0101056F0001CEEC04F0300E012438
:10290000016EA4EF14F0A4EF14F0010102510E08BF
:10291000D8A49CEF14F0000103C104F10A0E0101D8
:10292000056F0001CEEC04F0300E0024016EA4EF20
:1029300014F0A4EF14F001010251000187EC01F042
:10294000016E016EA4EF14F000C1EAFFFFC0E9FFC1
:1029500001C0EFFFF8515208D8B0B4EF14F0F46B97
:10296000F76BFE2BB7EF14F0FE2B57EF14F0FEC001
:102970000AF1DDEC09F0DCEF15F071ACC2EF14F0F8
:102980007AEF15F071B2CCEF14F07452D8A4CCEFFA
:1029900014F071A6D0EF14F0000E016ED3EF14F016
:1029A000756A010E016E0152D8B47AEF15F0FCC0C1
:1029B00003F171A2DFEF14F07186F4EF14F074509C
:1029C0003108D8A0F3EF14F0010103517526790EF8
:1029D0007424E96EEA6AD8B0EA2A000103C1EFFF65
:1029E000742AF4EF14F07186FBC003F171A2FCEFBE
:1029F00014F0718611EF15F074503108D8A010EF63
:102A000015F0010103517526790E7424E96EEA6A06
:102A1000D8B0EA2A000103C1EFFF742A11EF15F0C4
:102A20007186020EFE6FF951FE5DD8B040EF15F0D1
:102A3000340EFE25E96EEA6AD8B0EA2AEFCFFFF03D
:102A4000FFC003F171A228EF15F071863DEF15F07C
:102A500074503108D8A03CEF15F0010103517526E0
:102A6000790E7424E96EEA6AD8B0EA2A000103C13B
:102A7000EFFF742A3DEF15F07186FE2B13EF15F072
:102A8000FAC001F171B26BEF15F0010E01010125E1
:102A9000776E751C026F022B000102C103F171A257
:102AA00055EF15F071866AEF15F074503108D8A013
:102AB00069EF15F0010103517526790E7424E96E52
:102AC000EA6AD8B0EA2A000103C1EFFF742A6AEF6C
:102AD00015F071867182E1B976EF15F0F46B010E95
:102AE000FA25FF6FFFC00AF1DDEC09F0040EF76F65
:102AF0007AEF15F0DCEF15F071A4DAEF15F0E1A92B
:102B0000D7EF15F0200EFB25AB5DD8A48BEF15F0A9
:102B100071A6A1EF15F0ABC021F0020EFE6F010E01
:102B2000FA25FE5DD8B09FEF15F0200EFE25E96E68
:102B3000EA6AD8B0EA2AEF6AFE2B8FEF15F0C9EFE8
:102B400015F0FCC021F0020EFE6F010EFA25FE5DAD
:102B5000D8B0C9EF15F0200EFE25016E036AD8B07B
:102B6000032A0150FF6F03C000F1010EFE5DAB0FA1
:102B7000E96EEA6AD8B0EA2AEF500101026F00015B
:102B800003C0EAFFFFC0E9FF02C1EFFFFE2BA5EF84
:102B900015F071947196F46B010EFA25FF6FFFC06A
:102BA0000AF1DDEC09F0E199F76BDAEF15F07194B9
:102BB0007196F76BDCEF15F0F3EF1BF0FFFFF2CF30
:102BC0000EF0F29EE824E70FF66E2B0EF76ED8B0EB
:102BD000F72A0A00FFFFF550FA6E0800FFFFF550D4
:102BE0000EBEF28EF96EFC273228A6287A29F82A22
:102BF000FFFF71B203EF16F07452D8A403EF16F082
:102C000071A607EF16F0000E016E0AEF16F0756A56
:102C1000010E016E0152D8B47DEF16F000C103F130
:102C200071A216EF16F071862BEF16F07450310872
:102C3000D8A02AEF16F0010103517526790E7424ED
:102C4000E96EEA6AD8B0EA2A000103C1EFFF742AEC
:102C50002BEF16F07186440E0101036F71A234EF61
:102C600016F071864BEF16F074503108D8A048EF7B
:102C700016F003517526790E7424E96EEA6AD8B00D
:102C8000EA2A000103C1EFFF742A4AEF16F001019E
:102C9000718600010101070E016F71B276EF16F027
:102CA000010E0125776E751C026F022B000102C117
:102CB00003F171A25FEF16F0718674EF16F0745095
:102CC0003108D8A073EF16F0010103517526790E73
:102CD0007424E96EEA6AD8B0EA2A000103C1EFFF62
:102CE000742A74EF16F0718671820101010E016E73
:102CF00082EF16F082EF16F00001000E016E010166
:102D000082EF16F00001000CFFFFFFFF71A4CAEF75
:102D100016F0AB516408D8A491EF16F071A6A0EF9D
:102D200016F0010E0101005D060DF350046F000165
:102D300004C1E1FF030EE26E800EE76EC2EF16F0F3
:102D4000010E0101005D060DF350016F010E026FCF
:102D500002510608D8A0C1EF16F0AB0E0225E96EAD
:102D6000EA6AD8B0EA2A0001EFCF03F101C1E1FF1E
:102D7000030EE26E03C1E7FF0101012B022BA8EF56
:102D800016F0000171947196010E016ECEEF16F0EF
:102D9000CEEF16F0000E016ECEEF16F0000CFFFF26
:102DA000FFFF71B2DBEF16F07452D8A4DBEF16F020
:102DB00071A6DFEF16F0000E016EE2EF16F0756AF5
:102DC000010E016E0152D8B457EF17F00F0E01013A
:102DD000036F71A2EFEF16F0718606EF17F07450D3
:102DE0003108D8A003EF17F003517526790E74242B
:102DF000E96EEA6AD8B0EA2A000103C1EFFF742A3B
:102E000005EF17F00101718600010101450E036F06
:102E100071A20EEF17F0718625EF17F0745031088C
:102E2000D8A022EF17F003517526790E7424E96EAD
:102E3000EA6AD8B0EA2A000103C1EFFF742A24EF3E
:102E400017F00101718600010101110E016F71B2CD
:102E500050EF17F0010E0125776E751C026F022BE3
:102E6000000102C103F171A239EF17F071864EEF34
:102E700017F074503108D8A04DEF17F0010103513D
:102E80007526790E7424E96EEA6AD8B0EA2A000140
:102E900003C1EFFF742A4EEF17F0718671820101B2
:102EA000010E016E5CEF17F05CEF17F00001000EF1
:102EB000016E01015CEF17F0000188EF1AF0FFFFCF
:102EC00071A496EF17F0AB516508D8A46BEF17F01B
:102ED00071A66EEF17F0719E8EEF17F0718E240EB3
:102EE0000101006F010E016F01511008D8A08DEF94
:102EF00017F0AB0E0125E96EEA6AD8B0EA2A0001A4
:102F0000EFCF02F100C1E1FF030EE26E02C1E7FF65
:102F10000101002B012B74EF17F0000171947196E1
:102F2000010E016E9AEF17F09AEF17F0000E016E86
:102F30009AEF17F092EF1AF0FFFF71B2A7EF17F0B8
:102F40007452D8A4A7EF17F071A6ABEF17F0000EDC
:102F5000016EAEEF17F0756A010E016E0152D8B422
:102F600023EF18F00F0E0101036F71A2BBEF17F0F2
:102F70007186D2EF17F074503108D8A0CFEF17F058
:102F800003517526790E7424E96EEA6AD8B0EA2AEC
:102F9000000103C1EFFF742AD1EF17F00101718620
:102FA00000010101C50E036F71A2DAEF17F07186FF
:102FB000F1EF17F074503108D8A0EEEF17F003517D
:102FC0007526790E7424E96EEA6AD8B0EA2A0001FF
:102FD00003C1EFFF742AF0EF17F0010171860001C1
:102FE0000101110E016F71B21CEF18F0010E0125E5
:102FF000776E751C026F022B000102C103F171A2F2
:1030000005EF18F071861AEF18F074503108D8A047
:1030100019EF18F0010103517526790E7424E96E39
:10302000EA6AD8B0EA2A000103C1EFFF742A1AEF56
:1030300018F0718671820101010E016E28EF18F0FF
:1030400028EF18F00001000E016E010128EF18F0C2
:1030500000019CEF1AF0FFFF71A462EF18F0AB5172
:10306000E508D8A437EF18F071A63AEF18F0719E72
:103070005AEF18F0718E340E0101006F010E016FCE
:1030800001511008D8A059EF18F0AB0E0125E96ED8
:10309000EA6AD8B0EA2A0001EFCF02F100C1E1FFED
:1030A000030EE26E02C1E7FF0101002B012B40EF8E
:1030B00018F0000171947196010E016E66EF18F020
:1030C00066EF18F0000E016E66EF18F0A6EF1AF02A
:1030D000FFFF71B273EF18F07452D8A473EF18F0B9
:1030E00071A677EF18F0000E016E7AEF18F0756A8E
:1030F000010E016E0152D8B449EF19F00101036BC2
:1031000071A286EF18F071869DEF18F074503108A7
:10311000D8A09AEF18F003517526790E7424E96E41
:10312000EA6AD8B0EA2A000103C1EFFF742A9CEFD3
:1031300018F00101718600010101430E036F71A2B5
:10314000A5EF18F07186BCEF18F074503108D8A0C4
:10315000B9EF18F003517526790E7424E96EEA6A06
:10316000D8B0EA2A000103C1EFFF742ABBEF18F0C0
:103170000101718600010101280E036F71A2C4EFE5
:1031800018F07186DBEF18F074503108D8A0D8EF32
:1031900018F003517526790E7424E96EEA6AD8B0E6
:1031A000EA2A000103C1EFFF742ADAEF18F00101E7
:1031B000718600010101036B71A2E2EF18F07186C4
:1031C000F9EF18F074503108D8A0F6EF18F0035159
:1031D0007526790E7424E96EEA6AD8B0EA2A0001ED
:1031E00003C1EFFF742AF8EF18F0010171860001A6
:1031F0000101036B71A200EF19F0718617EF19F04E
:1032000074503108D8A014EF19F003517526790EC7
:103210007424E96EEA6AD8B0EA2A000103C1EFFF1C
:10322000742A16EF19F00101718600010101020EE6
:10323000016F71B242EF19F0010E0125776E751C16
:10324000026F022B000102C103F171A22BEF19F0F2
:10325000718640EF19F074503108D8A03FEF19F093
:10326000010103517526790E7424E96EEA6AD8B01B
:10327000EA2A000103C1EFFF742A40EF19F07186BA
:1032800071820101010E016E4EEF19F04EEF19F03F
:103290000001000E016E01014EEF19F00001DFEF99
:1032A0001AF0FFFF71A45DEF19F071947196010E91
:1032B000016E61EF19F061EF19F0000E016E61EF20
:1032C00019F0E9EF1AF0FFFFE251006E0052D8B496
:1032D000D0EF19F0010E005CD8B4D7EF19F0020E50
:1032E000005CD8B4E5EF19F0030E005CD8B4F3EF3E
:1032F00019F0040E005CD8B401EF1AF0050E005C62
:10330000D8B40FEF1AF0060E005CD8B41DEF1AF017
:10331000070E005CD8B42BEF1AF0080E005CD8B48E
:1033200039EF1AF0090E005CD8B447EF1AF00A0E14
:10333000005CD8B455EF1AF00B0E005CD8B463EF04
:103340001AF00C0E005CD8B471EF1AF0110E005C8C
:10335000D8B486EF1AF0120E005CD8B490EF1AF0D1
:10336000130E005CD8B49AEF1AF0140E005CD8B4B7
:10337000A4EF1AF0150E005CD8B4AEEF1AF0170ED9
:10338000005CD8B4DDEF1AF0180E005CD8B4E7EF9B
:103390001AF0190E005CD8B4F1EF1AF0F5EF1AF03C
:1033A000E1A1D5EF19F0010EE26FF8EF1AF0010E6E
:1033B0000101006F0001F8EC15F00152D8B4E3EF01
:1033C00019F0020EE26FF8EF1AF0010E0101006F22
:1033D000000185EC16F00152D8B4F1EF19F0030E9C
:1033E000E26FF8EF1AF0020E0101006F0001F8EC35
:1033F00015F00152D8B4FFEF19F0040EE26FF8EFA8
:103400001AF0020E0101006F000185EC16F0015266
:10341000D8B40DEF1AF0050EE26FF8EF1AF0030EB4
:103420000101006F0001F8EC15F00152D8B41BEF58
:103430001AF0060EE26FF8EF1AF0030E0101006FAA
:10344000000185EC16F00152D8B429EF1AF0070EEE
:10345000E26FF8EF1AF0040E0101006F0001F8ECC2
:1034600015F00152D8B437EF1AF0080EE26FF8EFFA
:103470001AF0040E0101006F000185EC16F00152F4
:10348000D8B445EF1AF0090EE26FF8EF1AF0050E06
:103490000101006F0001F8EC15F00152D8B453EFB0
:1034A0001AF00A0EE26FF8EF1AF0050E0101006F34
:1034B000000185EC16F00152D8B461EF1AF00B0E42
:1034C000E26FF8EF1AF0060E0101006F0001F8EC50
:1034D00015F00152D8B46FEF1AF00C0EE26FF8EF4E
:1034E0001AF0060E0101006F000185EC16F0015282
:1034F000D8B484EF1AF0E1A382EF1AF0150EE26F50
:1035000084EF1AF0110EE26FF8EF1AF0D0EF16F018
:103510000152D8B48EEF1AF0120EE26FF8EF1AF0E3
:103520005FEF17F00152D8B498EF1AF0130EE26F64
:10353000F8EF1AF09CEF17F00152D8B4A2EF1AF08E
:10354000140EE26FF8EF1AF02BEF18F00152D8B416
:10355000ACEF1AF0190EE26FF8EF1AF0010EFE6FE1
:10356000FE510508D8A0DBEF1AF0FEC00EF10101F4
:103570000F6B010E0E5D060DF3500F250001E46F79
:10358000E4C0E1FF030EE26EE750016E01C0FFF000
:10359000FF512808D8A4D6EF1AF0170EE26FE19376
:1035A000FEC0E3F0DBEF1AF0D8EF1AF0110EE26F75
:1035B000FE2BB0EF1AF0F8EF1AF068EF18F0015296
:1035C000D8B4E5EF1AF0180EE26FF8EF1AF051EFE9
:1035D00019F00152D8B4EFEF1AF0110EE26FF8EFC4
:1035E0001AF0E191E26BF8EF1AF00300F5EF1AF030
:1035F000F5EF1BF0FFFFF86AD09E0D8EEA6AE96ACC
:10360000070EC16E166A176A010E186E196A1A6AD9
:103610001B6A666A676A686ADE6BDF6BE06B719EC5
:10362000E193E36B0A0EAF6E220EAC6E900EAB6EA2
:10363000F86BF96BFA6BFB6BFC6BF29CF29EF2BEC3
:103640001EEF1BF0060EC16E8050060BFE6F040EBF
:10365000C16E81A42EEF1BF0010EFE27FE51016EFC
:1036600001C01CF0180E1C26C4EF04F01C501B08EF
:10367000D8B041EF1BF0400EAF6E260EAC6E040EBC
:103680001C5EFD6BFD515208D8A08AEF1BF0FDC0F7
:1036900002F11CC003F1010102510D08D8A462EF30
:1036A0001BF0000103C104F10A0E0101056F0001C6
:1036B000CEEC04F0300E0124016E80EF1BF080EFA1
:1036C0001BF0010102510E08D8A478EF1BF0000195
:1036D00003C104F10A0E0101056F0001CEEC04F0F4
:1036E000300E0024016E80EF1BF080EF1BF0010113
:1036F0000251000187EC01F0016E016E80EF1BF0BA
:1037000001C0FEF001509EA883EF1BF0AD6EFD2BB3
:1037100042EF1BF0EAEF04F0F7EF04F02CEF05F0B6
:1037200038EF05F05CEF05F0F76BE199719A719C49
:10373000C00EF21282A4AAEF1BF0630E006E002EE0
:10374000FED70000000082A4A8EF1BF040EF06F0B7
:10375000ABEF1BF0F298F29871A0E7EF1BF0692A2B
:10376000D8B46A2A71906950FE6F6A50070BFF6FD8
:10377000FE516408D8A4C2EF1BF0FF53D8A4C2EFD7
:103780001BF07188E1816950070BFE6F6A50000BD6
:10379000FF6FFE510508D8A4D4EF1BF0FF53D8A447
:1037A000D4EF1BF0C2EF06F06950070BFE6F6A50B2
:1037B000000BFF6FFE510608D8A4E5EF1BF0FF5386
:1037C000D8A4E5EF1BF0D2EF06F0F5EF1BF06B2A63
:1037D000D8B46C2A6BA0F1EF1BF0E5EF07F0F5EF22
:1037E0001BF0F5EF13F063EF19F0ACEF1BF00300E3
:00000001FF
;PIC18F252
