:020000040000FA
:04000000C2EF29F032
:08000800056ED8CF06F0E950A7
:10001000076EEA50086EE150096EE2500A6ED95040
:100020000B6EDA500C6EE0500D6E000100500F6E3A
:100030000150106E0250116E0350126E0450136E78
:10004000F2A626EF00F0F2B055EF00F0F2AA2CEF86
:1000500000F0F2B4AEEF00F09DA632EF00F09EB6D5
:10006000CDEF00F09DA038EF00F09EB0C1EF00F0A2
:100070000F50006E1050016E1150026E1250036E40
:100080001350046E0D50E06E0D8E0750E96E08504F
:10009000EA6E0950E16E0A50E26E0B50D96E0C50B8
:1000A000DA6E055006C0D8FF1000FFFF8150300BFC
:1000B0000101D06F0001B3510101D019CF6FCF53AF
:1000C000D8A465EF00F0AAEF00F0CF513008D8A413
:1000D00082EF00F00001BC2BD8B4BD2B85AD79EFC9
:1000E00000F0020EB45F000EB55BB65BB75B7FEF4E
:1000F00000F0020EB427000EB523B623B723A7EFF6
:1001000000F00101000ED0B9010ED16F000E000108
:10011000B3BB010E0101D119000AD8B49DEF00F064
:10012000010E0001B427D8B0B52BD8B4B62BD8B483
:10013000B72B859DA7EF00F00101FF0E0001B4274A
:10014000D8A0B527D8A0B627D8A0B727858DD0C10D
:10015000B3F00101F290000138EF00F0FFFFD76A21
:100160003D0ED66E85AFB5EF00F0B7C0BBF0B6C0A0
:10017000BAF0B5C0B9F0B4C0B8F0858FF29438EFDA
:1001800000F0FFFF3A2AD8B43B2A1B84CF0ECF6E73
:100190002B0ECE6E9E9038EF00F0FFFFC9CFD2F14C
:1001A00001018051006E010E005C0001D8B439EFEE
:1001B00001F0020E005CD8B439EF01F00052D8B45F
:1001C00039EF01F0040E005CD8B442EF01F0050EE7
:1001D000005CD8B442EF01F0030E005CD8B442EFEB
:1001E00001F0070E005CD8B464EF01F0080E005C6B
:1001F000D8B464EF01F0060E005CD8B464EF01F0EF
:100200000A0E005CD8B464EF01F00B0E005CD8B4A9
:1002100064EF01F0090E005CD8B464EF01F00D0E3C
:10022000005CD8B467EF01F0100E005CD8B48BEF1F
:1002300001F00C0E005CD8B498EF01F00F0E005CDA
:10024000D8B498EF01F00E0E005CD8B4A5EF01F021
:10025000110E005CD8B4A5EF01F0130E005CD8B409
:10026000C7EF01F0160E005CD8B4E7EF01F0F6EF2F
:1002700001F00101D253D8A440EF01F0040E806FC9
:10028000FAEF01F00101D22D58EF01F00001E55322
:10029000D8A453EF01F0FF0EE36F0D0E0101806F44
:1002A00056EF01F00001010E0101806F62EF01F0D5
:1002B000D253D8A460EF01F0070E806F62EF01F017
:1002C000010E806FFAEF01F00101FAEF01F0010178
:1002D000D253D8A470EF01F0040E806F89EF01F0C3
:1002E0001A0E0001E525E96E010EEA6ED8B0EA2A81
:1002F000D2C1EFFFFF0EC96EE5516208D8B087EF9B
:1003000001F0100E0101806F89EF01F00001E52B73
:100310000101FAEF01F00101D253D8A494EF01F0EA
:10032000040E806F96EF01F0FF0EC96EFAEF01F038
:100330000101D253D8A4A1EF01F0040E806FA3EF06
:1003400001F0010E806FFAEF01F00101D253D8A441
:10035000AEEF01F0040E806FC5EF01F00001E33D48
:10036000B6EF01F0FF0EC96EC4EF01F0949AE80EEB
:10037000E325E96EEA6AD8B0EA2AEF50C96EE32BAA
:10038000130E0101806F00010101FAEF01F001017C
:10039000D253D8A4D1EF01F0948A040E806FE5EF18
:1003A00001F00001E351E32BE80FE96EEA6AD8B0EF
:1003B000EA2AEF50C96EE451E35DD8A0E4EF01F002
:1003C000160E0101806F00010101FAEF01F0948A1D
:1003D0000101D253D8A4F1EF01F0040E806FF3EFC6
:1003E00001F0010E806FFAEF01F000010300F6EF5B
:1003F00001F001019E96000138EF00F0FFFFB70EFB
:10040000B116BD6ABD6AC191000E016E0509CA6EC2
:100410007F0ECB6E8A828A848B828B84F90E931630
:10042000941664EF2AF0FFFF01018E519003000142
:10043000F3CF01F0F4CF00F001019103F350002657
:100440008F519003F3500020026E0001000CFFFF5B
:10045000FFFFC1A130EF02F0B70EB116BD6ABD6A51
:10046000C1918A828B928B84B8EF2BF0FFFF010140
:100470008051006E070E005C0001D8B45BEF02F003
:10048000080E005CD8B45BEF02F0060E005CD8B436
:100490005BEF02F00A0E005CD8B461EF02F00B0EC5
:1004A000005CD8B461EF02F0090E005CD8B461EFD3
:1004B00002F07AEF02F0948A9D960A0E0101806F95
:1004C000000182A878EF02F0010E0101826F9D9673
:1004D000C66AFF0EC96EC69A928A350EC66E400E67
:1004E000C76EC76A948A010E806F0001E56B9D8616
:1004F00095EF02F0C6BC80EF02F0C6AE95EF02F0B9
:100500009D96010E0101826F9D96C66AFF0EC96E0F
:10051000C69A928A350EC66E400EC76EC76A948A16
:10052000010E806F0001E56B9D86DCEF2BF0FFFF75
:100530000101A851A419800BAF6FA8AFABEF02F077
:10054000A51FA61FA71FA81FA52BD8B4A62BD8B4DC
:10055000A72BD8B4A82BA4AFB9EF02F0A11FA21FFC
:10056000A31FA41FA12BD8B4A22BD8B4A32BD8B4FB
:10057000A42BA96BAA6B010EAB6FDA6AD96AAE6FB6
:10058000A10EAD6F010EEA6EA50EE96E0001AEC1BF
:10059000E2FFADC1E1FFABC1ACF1D890E550EE0296
:1005A000F3500101A923F450AA23AC2F01D003D0AA
:1005B0000001CEEF02F00001A9C1DEFFAAC1A9F13E
:1005C0000101AA6BD8B0AA2BAD2BAB2BAB51050800
:1005D000D8A4C2EF02F0AFAFF9EF02F0001E011E87
:1005E000021E031E002AD8B4012AD8B4022AD8B4A5
:1005F000032A0001000CFFFFFFFF0101A651AA1909
:10060000800BB06FA6AF10EF03F0A31FA41FA51FB0
:10061000A61FA32BD8B4A42BD8B4A52BD8B4A62B33
:10062000AAAF1EEF03F0A71FA81FA91FAA1FA72B81
:10063000D8B4A82BD8B4A92BD8B4AA2B006A016AC5
:10064000026A036AAB6BAC6BAD6BAE6BAA51A911BE
:10065000A811A711D8B462EF03F0200EAF6FD890A5
:10066000A337A437A537A637AB37AC37AD37AE378E
:10067000AA51AE5DD8A449EF03F0A951AD5DD8A44D
:1006800049EF03F0A851AC5DD8A449EF03F0A7519E
:10069000AB5DD8A05BEF03F0A751AB5FA851D8A02A
:1006A000A83DAC5FA951D8A0A93DAD5FAA51D8A083
:1006B000AA3DAE5FD8800036013602360336AF2F32
:1006C0002FEF03F00000B0AF71EF03F0001E011E2A
:1006D000021E031E002AD8B4012AD8B4022AD8B4B4
:1006E000032A010EEA6EAB0EE96E0001000CFFFF5B
:1006F000FFFFB9C086F1B8C085F1C2510101855D27
:10070000006E0001C35101018659036E00500001C3
:10071000DE6F89510308D8A4C8EF03F0BBC0A4F171
:10072000BAC0A3F1B9C0A2F1B8C0A1F10101A86B90
:10073000A76BA66B060EA56F000197EC02F003C035
:100740008AF102C089F101C088F100C087F103C0BD
:10075000A6F102C0A5F101C0A4F100C0A3F10101FE
:10076000AA6BA96BA86B070EA76F0001FCEC02F047
:1007700001C084F100C083F1C2510101835D006EAC
:100780000001C35101018459036E00500001DE6F66
:10079000C653D8A4E7EF03F0C753D8A4E7EF03F09C
:1007A000C853D8A4E7EF03F0C953D8A4E7EF03F088
:1007B00086C1C3F085C1C2F089510308D8A4E5EF12
:1007C00003F084C1C3F083C1C2F0D8EF04F08951B3
:1007D0000308D8A451EF04F0C9C0A4F1C8C0A3F124
:1007E000C7C0A2F1C6C0A1F10101A86BA76BA66B9F
:1007F000070EA56F000197EC02F003C08AF102C05A
:1008000089F101C088F100C087F103C0A6F102C0E0
:10081000A5F101C0A4F100C0A3F10101AA6BA96B6D
:10082000A86B060EA76F0001FCEC02F003C08BF171
:1008300002C08AF101C089F100C088F103C08FF1C4
:1008400002C08EF101C08DF100C08CF1F29CF29ECD
:10085000F2BE27EF04F001018C510001B427010121
:100860008D510001B52301018E510001B623010114
:100870008F510001B72301018C510001B8270101FC
:100880008D510001B92301018E510001BA230101EC
:100890008F510001BB23BD6BBC6BC00EF21282EF07
:1008A00004F0C9C08FF1C8C08EF1C7C08DF1C6C0B9
:1008B0008CF1F29CF29EF2BE5AEF04F001018C51D1
:1008C0000001B42701018D510001B52301018E51B2
:1008D0000001B62301018F510001B72301018C51A2
:1008E0000001B82701018D510001B92301018E518A
:1008F0000001BA2301018F510001BB23BD6BBC6B0A
:10090000C00EF212B9C0C3F0B8C0C2F089510308DA
:10091000D8A4B9EF04F0BBC0A4F1BAC0A3F1B9C028
:10092000A2F1B8C0A1F10101A86BA76BA66B060EDE
:10093000A56F000197EC02F003C08AF102C089F1B3
:1009400001C088F100C087F103C0A6F102C0A5F183
:1009500001C0A4F100C0A3F10101AA6BA96BA86BAF
:10096000070EA76F0001FCEC02F001C0C3F000C04D
:10097000C2F0E0C000F0E1C001F0026A036AE1AF3A
:10098000C4EF04F002060306C6510026C751012237
:10099000C8510222C951032201C0E1F000C0E0F0B9
:1009A000E1C0CBF0E0C0CAF0C96BC86BC76BC66BC7
:1009B000C56BDEC0C4F0C4BFC507E8EF2BF0FFFF76
:1009C0001BAECCEF05F039503B5CD8A0B6EF05F07C
:1009D000D8A4F0EF04F03A50385CD8B0B6EF05F088
:1009E000DCAFB6EF05F085A5B6EF05F085B13FEFBA
:1009F00005F064C03DF063C03CF062C039F061C0F6
:100A000038F066C042F065C041F068C044F067C08D
:100A100043F06AC046F069C045F06CC048F06BC056
:100A200047F01BA219EF05F03B6A010E3A6E32EF58
:100A300005F02F6A2E6A2D6A2C6A336A326AC3C0A7
:100A400031F0C2C030F031AE28EF05F03206330687
:100A500033C037F032C036F031C035F030C034F03A
:100A60003B6A3A6A1B8C1B82C193180EDC6F85951A
:100A70001B8ECF0ECF6E2B0ECE6EB6EF05F064C080
:100A80003DF063C03CF062C039F061C038F066C030
:100A900042F065C041F068C044F067C043F06AC0EE
:100AA00046F069C045F06CC048F06BC047F06EC0BE
:100AB0004AF06DC049F070C04CF06FC04BF072C08E
:100AC0004EF071C04DF074C050F073C04FF076C05E
:100AD00052F075C051F078C054F077C053F07AC02E
:100AE00056F079C055F07CC058F07BC057F07EC0FE
:100AF0005AF07DC059F080C05CF07FC05BF082C0CE
:100B00005EF081C05DF084C060F083C05FF01BA226
:100B10008FEF05F03B6A010E3A6EA8EF05F02F6AE1
:100B20002E6A2D6A2C6A336A326AC3C031F0C2C0A1
:100B300030F031AE9EEF05F03206330633C037F0A9
:100B400032C036F031C035F030C034F03B6A3A6A1A
:100B50003E6A3F6A1B82C193180EDC6F8595CF0EEB
:100B6000CF6E2B0ECE6E85911B9E1B8C42C08DF1DD
:100B700041C08CF144C08FF143C08EF146C091F169
:100B800045C090F148C093F147C092F101018B6BD1
:100B90008A6B7DEF07F000013B50395CD8A0EFEF86
:100BA00005F0D8A4D9EF05F03A50385CD8A0EFEFA3
:100BB00005F042C08DF141C08CF144C08FF143C0BB
:100BC0008EF146C091F145C090F148C093F147C005
:100BD00092F101018B6B8A6B13EF06F00001395023
:100BE0003B5CD8A012EF06F0D8A4FCEF05F03A5019
:100BF000385CD8B012EF06F04AC08DF149C08CF1D4
:100C00004CC08FF14BC08EF14EC091F14DC090F1B0
:100C100050C093F14FC092F139C08BF138C08AF1C6
:100C2000010E3E6E0101D8903834026E3934036EE5
:100C30000250016E03503B5CD8A040EF06F0D8A4F0
:100C400027EF06F03A50015CD8B040EF06F0000103
:100C500052C08DF151C08CF154C08FF153C08EF150
:100C600056C091F155C090F158C093F157C092F120
:100C7000D890383401018A6F39348B6F020E3E6E82
:100C8000D8903834986F3934996F38509825016E60
:100C900039509921036E03503B5CD8A077EF06F0E2
:100CA000D8A458EF06F03A50015CD8B077EF06F0C0
:100CB00000015AC08DF159C08CF15CC08FF15BC04E
:100CC0008EF15EC091F15DC090F160C093F15FC0A4
:100CD00092F1D89038340101986F3934996F3850B7
:100CE00098258A6F395099218B6F030E3E6E3834E8
:100CF000026E3934036E02360336FC0E02160250C1
:100D0000016E03503B5CD8A079EF07F0D8A48EEFBA
:100D100006F03A50015CD8B079EF07F0D89038343B
:100D2000986F3934996F385098259A6F39509921B6
:100D30009B6F010E9A258A6F000E9B218B6F00011D
:100D4000DCAF78EF07F085A578EF07F085B31FEFEC
:100D500007F064C03DF063C03CF062C039F061C090
:100D600038F066C042F065C041F068C044F067C02A
:100D700043F06AC046F069C045F06CC048F06BC0F3
:100D800047F06EC04AF06DC049F070C04CF06FC0C3
:100D90004BF072C04EF071C04DF074C050F073C093
:100DA0004FF076C052F075C051F078C054F077C063
:100DB00053F07AC056F079C055F07CC058F07BC033
:100DC00057F07EC05AF07DC059F080C05CF07FC003
:100DD0005BF082C05EF081C05DF084C060F083C0D3
:100DE0005FF01BA2F9EF06F03B6A010E3A6E12EFBC
:100DF00007F02F6A2E6A2D6A2C6A336A326AC3C0E2
:100E000031F0C2C030F031AE08EF07F032063306E1
:100E100033C037F032C036F031C035F030C034F076
:100E20003B6A3A6A3E6A3F6A1B82C193180EDC6FC6
:100E30008595CF0ECF6E2B0ECE6E64EF07F064C09B
:100E40003DF063C03CF062C039F061C038F066C06C
:100E500042F065C041F068C044F067C043F06AC02A
:100E600046F069C045F06CC048F06BC047F01BA26B
:100E70003FEF07F03B6A010E3A6E58EF07F02F6A1A
:100E80002E6A2D6A2C6A336A326AC3C031F0C2C03E
:100E900030F031AE4EEF07F03206330633C037F094
:100EA00032C036F031C035F030C034F03B6A3A6AB7
:100EB0001B8C1B82C193180EDC6F85951B8ECF0E89
:100EC000CF6E2B0ECE6E859342C08DF141C08CF15A
:100ED00044C08FF143C08EF146C091F145C090F1FE
:100EE00048C093F147C092F101018B6B8A6B0001FE
:100EF00001018A513A5E8B513B5A9B6B9A6B000100
:100F00003BC099F13AC098F13AC000F03BC001F003
:100F1000026A036A03C09FF102C09EF13BC09DF1CB
:100F20003AC09CF19BC1A4F19AC1A3F13BC0A2F1CC
:100F30003AC0A1F103C0A8F102C0A7F13BC0A6F1DD
:100F40003AC0A5F197EC02F003C09CF102C09BF1FE
:100F500001C09AF100C099F13AC000F03BC001F025
:100F6000026A036A03C0A0F102C09FF13BC09EF178
:100F70003AC09DF19CC1A4F19BC1A3F19AC1A2F119
:100F800099C1A1F103C0A8F102C0A7F13BC0A6F12D
:100F90003AC0A5F197EC02F003C097F102C096F1B8
:100FA00001C095F100C094F192C100F093C101F02D
:100FB000026A036A01AEDFEF07F00206030603C010
:100FC0009BF102C09AF101C099F100C098F103C0F1
:100FD000A4F102C0A3F101C0A2F100C0A1F197C128
:100FE000A8F196C1A7F195C1A6F194C1A5F197EC1E
:100FF00002F003C033F002C032F001C031F000C093
:1010000030F0333232323132303233323232313206
:1010100030323332323231323032333232323132B4
:1010200030323332323231323032070E331633C07F
:1010300099F101019A6B9B6B9C6B33509D6F9A5198
:10104000000B9E6F9B51000B9F6F9C51000BA06F7C
:101050009DA52DEF08F0F80E33129B6B9A6B0001E3
:101060003BC099F13AC098F13AC000F03BC001F0A2
:10107000026A036A03C09FF102C09EF13BC09DF16A
:101080003AC09CF19BC1A4F19AC1A3F13BC0A2F16B
:101090003AC0A1F103C0A8F102C0A7F13BC0A6F17C
:1010A0003AC0A5F197EC02F003C097F102C096F1A7
:1010B00001C095F100C094F190C100F091C101F020
:1010C000026A036A01AE67EF08F00206030603C076
:1010D0009BF102C09AF101C099F100C098F103C0E0
:1010E000A4F102C0A3F101C0A2F100C0A1F197C117
:1010F000A8F196C1A7F195C1A6F194C1A5F197EC0D
:1011000002F00050302601503122025032220350AA
:1011100033223332323231323032333232323132C0
:1011200030323332323231323032333232323132A3
:1011300030320F0E331633C099F101019A6B9B6B5D
:101140009C6B33509D6F9A51000B9E6F9B51000B0F
:101150009F6F9C51000BA06F9DA7B1EF08F0F00EA0
:1011600033129B6B9A6B00018FC199F18EC198F17C
:1011700001018FAFBEEF08F09A079B0700013AC04C
:1011800000F03BC001F0026A036A03C09FF102C095
:101190009EF13BC09DF13AC09CF19BC1A4F19AC164
:1011A000A3F199C1A2F198C1A1F103C0A8F102C0B5
:1011B000A7F13BC0A6F13AC0A5F197EC02F00050B0
:1011C0003026015031220250322203503322333272
:1011D00032323132303233323232313230323332F3
:1011E00032323132303233323232313230323332E3
:1011F0003232313230323332323231323032030E27
:10120000331633C099F101019A6B9B6B9C6B335081
:101210009D6F9A51000B9E6F9B51000B9F6F9C51CD
:10122000000BA06F9DA317EF09F0FC0E3312000115
:101230008CC100F08DC101F0026A036A01AE23EF98
:1012400009F00206030600503026015031220250F8
:101250003222035033221BBE34EF09F001018A51C0
:101260003A268B513B2200011BBE4EEF09F0383469
:10127000026E3934036E02360336FC0E021602503B
:10128000016E03503B5CD8A04EEF09F0D8A45EEF8E
:1012900009F03A50015CD8A05EEF09F01BAE75EF83
:1012A00009F039503B5CD8A075EF09F0D8A45EEF87
:1012B00009F03A50385CD8B075EF09F01B9EDC8D10
:1012C0001B921BA86AEF09F03DC0E1F03CC0E0F0C2
:1012D0006EEF09F0C3C0E1F0C2C0E0F0E1C0CBF0B6
:1012E000E0C0CAF0C183B8EF09F01BBC7EEF09F083
:1012F0003F503E5C0108D8A481EF09F01B9CAEEF83
:1013000009F03450305C2C6E355031582D6E36500B
:1013100032582E6E375033582F6E2F322E322D32D8
:101320002C322F322E322D322C323F0E2F162FC060
:1013300099F101019A6B9B6B9C6B2F509D6F9A5199
:10134000000B9E6F9B51000B9F6F9C51000BA06F79
:101350009DABADEF09F0C00E2F12000133C037F086
:1013600032C036F031C035F030C034F03EC03FF00E
:101370001B94ADEF0DF0FFFF0101C651C819800BA2
:10138000CA6FC6AFC9EF09F0C51FC61FC52BD8B4B9
:10139000C62BC8AFD1EF09F0C71FC81FC72BD8B4E1
:1013A000C82BC551C7030001F3CF01F0F4CF00F003
:1013B0000101C803F3500026C651C703F3500020B3
:1013C000026ECAAFE9EF09F0011E021E012AD8B46D
:1013D000022A00000001000CFFFFFFFF0101976BD4
:1013E000020E966F0001D6C099F1D5C098F1D8C011
:1013F0009BF1D7C09AF127C0A4F126C0A3F125C064
:10140000A2F124C0A1F127C0A8F126C0A7F125C0F0
:10141000A6F124C0A5F197EC02F003C091F102C03F
:1014200090F101C08FF100C08EF101019F6B9E6BA6
:101430000001C3C09DF1C2C09CF101019DAF23EF2B
:101440000AF09E079F070001CAC000F0CBC001F060
:10145000026A036ACBAF2FEF0AF0020603060050C0
:1014600001019C5D926F01509D59936F02509E59EE
:10147000946F03509F59956F000192C100F093C182
:1014800001F094C102F095C103F0010195AF56EF50
:101490000AF0000ED8809255006E000E9355016E32
:1014A000000E9455026E000E9555036E000103C0A8
:1014B0009FF102C09EF101C09DF100C09CF10101AD
:1014C000A46BA36BA26B0001DBC0A1F103C0A8F168
:1014D00002C0A7F101C0A6F100C0A5F197EC02F08F
:1014E00003C0A0F102C09FF101C09EF100C09DF1B8
:1014F00097C1C6F196C1C5F10101C86B020EC76F55
:101500000001BBEC09F002C003F001500101A16F22
:10151000000102C0A2F1A0C1A6F19FC1A5F19EC128
:10152000A4F19DC1A3F10101AA6BA96B000102C046
:10153000A8F1A1C1A7F10101A8AFA1EF0AF0A90785
:10154000AA070001FCEC02F003C08DF102C08CF18F
:1015500001C08BF100C08AF1C3AFB4EF0AF0CBAF8A
:10156000C4EF0AF0B7EF0AF0CBBF2EEF0BF0C35178
:10157000CB5DD8A02EEF0BF0D8A4C4EF0AF0CA516F
:10158000C25DD8B02EEF0BF08DC1A4F18CC1A3F1D8
:101590008BC1A2F18AC1A1F10101A86BA76BA66B57
:1015A0000C0EA56F000197EC02F0010191AFDEEF88
:1015B0000AF003AE03EF0BF0E1EF0AF003BEFEEF1B
:1015C0000AF09151035CD8A0FEEF0AF0D8A403EF13
:1015D0000BF09051025CD8A0FEEF0AF0D8A403EF04
:1015E0000BF08F51015CD8A0FEEF0AF0D8A403EFF6
:1015F0000BF000508E5DD8A003EF0BF027BE03EF79
:101600000BF029EF0BF027AE0BEF0BF099AF23EFA8
:101610000BF00EEF0BF099BF29EF0BF02752D8A477
:1016200029EF0BF02652D8A429EF0BF02550995D35
:10163000D8A029EF0BF0D8A423EF0BF09851245C2D
:10164000D8B029EF0BF00001DB5140262CEF0BF056
:1016500001010001DB51405EB4EF0BF08DC1A4F13C
:101660008CC1A3F18BC1A2F18AC1A1F10101A86BC8
:10167000A76BA66B0C0EA56F000197EC02F00101A1
:1016800091AF48EF0BF003AE7CEF0BF04BEF0BF09C
:1016900003BE68EF0BF09151035CD8A068EF0BF02C
:1016A000D8A47CEF0BF09051025CD8A068EF0BF04F
:1016B000D8A47CEF0BF08F51015CD8A068EF0BF041
:1016C000D8A47CEF0BF000508E5DD8A07CEF0BF01F
:1016D00027BEB1EF0BF02752D8A47CEF0BF02652B7
:1016E000D8A47CEF0BF02552D8A47CEF0BF024504B
:1016F0000008D8B0B1EF0BF0241C9C6F251C9D6F27
:10170000261C9E6F271C9F6F9C2BD8B49D2BD8B492
:101710009E2BD8B49F2B9FAF93EF0BF09BAFABEFFB
:101720000BF096EF0BF09BBFB1EF0BF09F53D8A4DB
:10173000B1EF0BF09E53D8A4B1EF0BF09D519B5D20
:10174000D8A0B1EF0BF0D8A4ABEF0BF09A519C5D91
:10175000D8B0B1EF0BF00001DB51405EB4EF0BF0FD
:1017600001010001DB514026036A4050006E00BEBB
:101770000306016E010197AFC3EF0BF003AED3EF89
:101780000BF0C6EF0BF003BEE9EF0BF09751035CD3
:10179000D8A0E9EF0BF0D8A4D3EF0BF09651015C81
:1017A000D8A0E9EF0BF0010E2426000E25222622F8
:1017B0002722036A4050006E00BE0306D88096556B
:1017C000006E9751035A0050406E0001B4EF0BF0C9
:1017D00001019D6B000140C09CF1010140BE9D07CD
:1017E000000ED8809655006E000E9755036E00507F
:1017F000016E9DAF01EF0CF003AE11EF0CF004EFA2
:101800000CF003BE24EF0CF09D51035CD8A024EF34
:101810000CF0D8A411EF0CF09C51015CD8A024EF7F
:101820000CF0010E245E000E255A265A275A036A30
:101830004050006E00BE03069625016E97510322AC
:101840000150406EE9EF0BF0000192C100F093C12E
:1018500001F094C102F095C103F0010195AF3EEF94
:101860000CF0000ED8809255006E000E9355016E5C
:10187000000E9455026E000E9555036E000103C0D4
:101880009FF102C09EF101C09DF100C09CF10101D9
:1018900003BE5CEF0CF09F53D8A45FEF0CF09E5397
:1018A000D8A45FEF0CF09D53D8A45FEF0CF09C51CF
:1018B0000408D8A05FEF0CF00001C1830101000112
:1018C000B7EF0DF0FFFF0101C851CA19800BCC6FB3
:1018D000C8AF70EF0CF0C71FC81FC72BD8B4C82BF8
:1018E000CAAF78EF0CF0C91FCA1FC92BD8B4CA2BD6
:1018F000016A026A006A036ACA51D8A484EF0CF034
:10190000C951D8B4A1EF0CF0100ECB6FD890C737E7
:10191000C83700360336CA51035CD8A492EF0CF0E6
:10192000C951005CD8A09CEF0CF0C951005ED8A052
:101930000306CA51035ED88001360236CB2F86EFEC
:101940000CF00000CCAFAAEF0CF0011E021E012A21
:10195000D8B4022A0001000CFFFFFFFFDCA7B7EF9D
:101960000CF0DCA9B7EF0CF0DD89CDEF0CF0DDA9B0
:10197000CDEF0CF0DDB7CCEF0CF0C3C0E1F0C2C08E
:10198000E0F02B6A2A6AC3C029F0C2C028F029AE51
:10199000CCEF0CF02A062B06DD99DDA9D4EF0CF074
:1019A000CBC0E1F0CAC0E0F0DCB7FBEF0CF0C3C085
:1019B000E1F0C2C0E0F02B6A2A6AC3C029F0C2C0BD
:1019C00028F029AEE6EF0CF02A062B06C4C000F082
:1019D000C5C001F0026A036AC5AFF1EF0CF0020660
:1019E000030603C027F002C026F001C025F000C0A6
:1019F00024F0C3EF12F0C251E05D0101846F0001D9
:101A0000C351E1590101856F0001C3AF0DEF0DF026
:101A1000E1AF1DEF0DF010EF0DF0E1BF29EF0DF07C
:101A2000C351E15DD8A029EF0DF0D8A41DEF0DF052
:101A3000E051C25DD8B029EF0DF0010185BF25EF5F
:101A40000DF0000129EF0DF00101020E856F846B8E
:101A50000001E1AF31EF0DF0C3AF41EF0DF034EF16
:101A60000DF0C3BF56EF0DF0E151C35DD8A056EFA6
:101A70000DF0D8A441EF0DF0C251E05DD8B056EFA3
:101A80000DF0010185AF03D0000156EF0DF0855335
:101A9000D8A452EF0DF084510008D8A003D0000163
:101AA00056EF0DF0FE0E856F846B0001010185AFCE
:101AB00061EF0DF00001D4AF78EF0DF065EF0DF0A0
:101AC00001010001D4BFA4EF0DF001018551000117
:101AD000D45DD8A0A4EF0DF0D8A478EF0DF0D351C9
:101AE0000101845DD8A003D00001A4EF0DF0000136
:101AF0000101841D8A6F851D8B6F8A2BD8B48B2BB7
:101B00008BAF8AEF0DF00001D4AFA1EF0DF08EEF97
:101B10000DF001010001D4BFA4EF0DF001018B51C4
:101B20000001D45DD8A0A4EF0DF0D8A4A1EF0DF072
:101B3000D35101018A5DD8A003D00001A4EF0DF0BC
:101B40000001DD87A5EF0DF0DD971BA2AFEF0DF0D3
:101B50001BA4ADEF0DF0DFEF04F0BDEF0DF0C1B34E
:101B6000B9EF0DF0DCA7B9EF0DF0EDEF09F0BDEF27
:101B70000DF0276A266A256A246AC1B376EF0EF053
:101B80001BA2F8EF0DF0C4512C5CD16FC5512D583C
:101B9000D26F89510408D8A4DDEF0DF0D2C0C6F190
:101BA000D1C0C5F10101C86B050EC76F0001BBECC8
:101BB00009F002C0D2F001C0D1F0C251305CCF6F49
:101BC000C3513158D06FD890D033CF33D0C08AF1C1
:101BD00001018B6B8A518C6F8B51000B8D6F8CAD1B
:101BE000F5EF0DF00001D08F010173EF0EF0000151
:101BF00025300101876F2430866F873386333F0E8F
:101C00008717000187C18AF101018B6B87518C6FA7
:101C10008B51000B8D6F8CAB10EF0EF0C00E871345
:101C2000000186C100F087C101F0026A036A01AEBB
:101C30001CEF0EF002060306005028260150292250
:101C400002502A2203502B222BBE44EF0EF02B52BF
:101C5000D8A43DEF0EF02A52D8A43DEF0EF0295043
:101C60007C08D8B044EF0EF0FF0AD8A43DEF0EF088
:101C700028500008D8B044EF0EF02B6A2A6A7D0E77
:101C8000296E286A62EF0EF02BAE62EF0EF02B5039
:101C9000FF08D8A062EF0EF0D8A45CEF0EF02A5037
:101CA000FF08D8A062EF0EF0D8A45CEF0EF0295028
:101CB0008208D8A062EF0EF0FF0E2B6E2A6E830E04
:101CC000296E286AC251285CCF6FC3512958D06F42
:101CD000C4510101865D0001D16FC55101018759D1
:101CE0000001D26F01018AEF0EF000011BB289EFF3
:101CF0000EF0C1A389EF0EF0C251E05DCF6FC3516A
:101D0000E159D06FC41DD16FC51DD26FD12BD8B48E
:101D1000D22B01011BAAEFEF0FF01BA256EF0FF021
:101D20000001D0C003F0CF51D0AF9FEF0EF0000EF6
:101D3000D880CF55006E000ED055036E00500101C3
:101D40008A6F000103C08BF121AEAEEF0EF00101EE
:101D50008BAFBFEF0EF0B2EF0EF0000101018BBFB1
:101D600054EF0FF021508B5DD8A054EF0FF0D8A4A2
:101D7000BFEF0EF08A51205CD8B054EF0FF0000195
:101D8000C5C003F0C451C5AFCEEF0EF0000ED88031
:101D9000C455006E000EC555036E005001018C6FD6
:101DA000000103C08DF10101C66B640EC56F000117
:101DB00003C0C8F18CC1C7F1BBEC09F00101906B05
:101DC0008F6B000102C08EF101C08DF1010102AEE6
:101DD000ECEF0EF08F07900700012CC000F02DC033
:101DE00001F02EC002F02FC003F02FAE05EF0FF070
:101DF000000ED8802C54006E000E2D54016E000E83
:101E00002E54026E000E2F54036E03C092F102C0D6
:101E100091F101C090F100C08FF103C0A4F102C0A4
:101E2000A3F101C0A2F100C0A1F10101A86BA76B51
:101E3000A66B000123C0A5F197EC02F0010190AF61
:101E400027EF0FF003AE47EF0FF02AEF0FF003BEBE
:101E500054EF0FF09051035CD8A054EF0FF0D8A4CA
:101E600047EF0FF08F51025CD8A054EF0FF0D8A4C9
:101E700047EF0FF08E51015CD8A054EF0FF0D8A4BB
:101E800047EF0FF08D51005CD8A054EF0FF0000128
:101E9000C3C0CBF0C2C0CAF0CBC0E1F0CAC0E0F012
:101EA0001B92280EDC6F0101EFEF0FF00001D0C094
:101EB00003F0CF51D0AF65EF0FF0000ED880CF55B3
:101EC000006E000ED055036E005001018A6F0001B4
:101ED00003C08BF11FAE74EF0FF001018BAF85EFE4
:101EE0000FF078EF0FF0000101018BBFEFEF0FF063
:101EF0001F508B5DD8A0EFEF0FF0D8A485EF0FF047
:101F00008A511E5CD8B0EFEF0FF00001C5C003F09E
:101F1000C451C5AF94EF0FF0000ED880C455006EC9
:101F2000000EC555036E005001018C6F000103C007
:101F30008DF10101C66B640EC56F000103C0C8F1CD
:101F40008CC1C7F1BBEC09F002C08EF101C08DF16C
:101F500087C103F00101865187AFB7EF0FF0000E84
:101F6000D8808655006E000E8755036E00508F6F27
:101F7000000103C090F103C0C6F18FC1C5F101019A
:101F8000C86B000122C0C7F1BBEC09F002C003F02E
:101F9000015001018EAFD2EF0FF003AEE2EF0FF070
:101FA000D5EF0FF003BEEFEF0FF08E51035CD8A01A
:101FB000EFEF0FF0D8A4E2EF0FF08D51015CD8A045
:101FC000EFEF0FF00001C3C0CBF0C2C0CAF0CBC02E
:101FD000E1F0CAC0E0F01B92280EDC6F01010001A5
:101FE00089510608D8A44DEF10F0010E1F6EF40EB3
:101FF0001E6ED0C003F0CF51D0AF07EF10F0000E2F
:10200000D880CF55006E000ED055036E00500101F0
:102010008A6F000103C08BF11FAE16EF10F00101B3
:102020008BAF27EF10F01AEF10F0000101018BBF0A
:1020300031EF10F01F508B5DD8A031EF10F0D8A415
:1020400027EF10F08A511E5CD8B031EF10F000017C
:10205000C3C0CBF0C2C0CAF0CBC0E1F0CAC0E0F050
:1020600001010001D0C089F1CFC088F1D2C0C8F110
:10207000D1C0C7F10101CA6B030EC96F000162EC48
:102080000CF0015001018827025089230001DCABCC
:102090004BEF10F0DC9B6DEF10F0D0C0C6F1CFC05D
:1020A000C5F10101C86B000187C0C7F1BBEC09F0A5
:1020B00002C089F101C088F1D2C0C6F1D1C0C5F11A
:1020C0000101C86B000186C0C7F1BBEC09F00150EB
:1020D000010188270250892300018853D8B4B8EF42
:1020E00010F0DCA9B8EF10F0010188510001CD27F4
:1020F000010189510001CE23CEBF93EF10F0CE51E4
:102100004D08D8B093EF10F0FF0AD8A48DEF10F06F
:10211000CD512008D8B093EF10F04E0ECE6F200EA8
:10212000CD6FA7EF10F0CEAFA7EF10F0CE51B108F2
:10213000D8A0A7EF10F0D8A4A3EF10F0CD51DF087E
:10214000D8A0A7EF10F0B10ECE6FE00ECD6FCEC0CD
:10215000C8F1CDC0C7F10101CA6B000188C0C9F147
:1021600062EC0CF001500101882702508923000124
:102170001BA2E2EF11F085A9E2EF11F08D6B8C6BE1
:1021800089C18BF088C18AF08BAFC9EF10F08C0742
:102190008D078DC0A4F18CC0A3F18BC0A2F18AC0C1
:1021A000A1F10101A86BA76BA66B0001A6C0A5F168
:1021B00097EC02F003C08DF102C08CF101C08BF1ED
:1021C00000C08AF1A1C0A4F1A0C0A3F19FC0A2F1F8
:1021D0009EC0A1F10101A86BA76BA66B0001AAC06C
:1021E000A5F197EC02F0005001018A258E6F015095
:1021F0008B218F6F02508C21906F03508D21916F36
:1022000000019DC0A4F19CC0A3F19BC0A2F19AC0A3
:10221000A1F10101A86BA76BA66B0001A9C0A5F1F4
:1022200097EC02F0005001018E25926F01508F2132
:10223000936F02509021946F03509121956F00018C
:1022400099C0A4F198C0A3F197C0A2F196C0A1F1E2
:102250000101A86BA76BA66B0001A8C0A5F197ECC4
:1022600002F0005001019225966F01509321976F63
:1022700002509421986F03509521996F000195C0E9
:10228000A4F194C0A3F193C0A2F192C0A1F1010105
:10229000A86BA76BA66B0001A7C0A5F197EC02F095
:1022A00000500101962500018E6F01500101972118
:1022B00000018F6F0250010198210001906F0350BF
:1022C000010199210001916FA751A625A825A925F3
:1022D000AA25006E016A026A036A03C0A5F002C063
:1022E000A4F001C0A3F000C0A2F091C0A6F190C07C
:1022F000A5F18FC0A4F18EC0A3F1A5C0AAF1A4C01E
:10230000A9F1A3C0A8F1A2C0A7F1FCEC02F003C0A0
:1023100091F002C090F001C08FF000C08EF0040E6A
:102320000101836F8353D8B4DDEF11F08F6B00018F
:1023300083C18EF10101916B040E906F000113ECCB
:1023400002F002C003F001508E0F016E000E032256
:10235000015001018A6F000103C08BF1010E0101E0
:10236000835D8D6F8F6B00018DC18EF10101916BCB
:10237000040E906F000113EC02F002C003F0015054
:102380008E0FE96E000E0220EA6EEFCF00F0ECCF68
:1023900001F0ECCF02F0ECCF03F08BC1EAFF8AC171
:1023A000E9FF00C0EFFF01C0ECFF02C0ECFF03C07B
:1023B000ECFF0101830792EF11F000018FC089F15A
:1023C0008EC088F1036AD951016E03AEEFEF11F0B0
:1023D000010189AF00EF12F0F3EF11F000010101EC
:1023E00089BF05EF12F00350895DD8A005EF12F008
:1023F000D8A400EF12F08851015CD8B005EF12F0BC
:10240000896B0001D9C088F10101036A0001DA512A
:10241000FF0A010F006E000E03560050016E01010D
:1024200089AF18EF12F003AE28EF12F01BEF12F095
:1024300003BE32EF12F08951035CD8A032EF12F0E4
:10244000D8A428EF12F00150885DD8B032EF12F016
:10245000036A0001DA51FF0A010F0101886F000EC3
:102460000354896F1BA2C0EF12F0000185BB03D09B
:102470000101C0EF12F08D6B8C6B89C18BF088C1AC
:102480008AF08BAF46EF12F08C078D07AB518A5D57
:10249000006EAC518B59016EAD518C59026EAE512C
:1024A0008D59036E01C0B2F000C0B1F0B0AF5EEF65
:1024B00012F0B2AF6EEF12F061EF12F0B2BF7CEF2C
:1024C00012F0B051B25DD8A07CEF12F0D8A46EEF3C
:1024D00012F0B151AF5DD8B07CEF12F0AF51AB2527
:1024E0008E6FB051AC218F6F000EAD21906F000E3A
:1024F000AE21916FB3EF12F0000ED880AF55006E91
:10250000000EB055036E0050016EB2AF8DEF12F0A9
:1025100003AE9DEF12F090EF12F003BEABEF12F09E
:10252000B251035CD8A0ABEF12F0D8A49DEF12F02B
:102530000150B15DD8B0ABEF12F0AF51AB5D8E6F13
:10254000B051AC598F6F000EAD59906F000EAE595F
:10255000916FB3EF12F08DC091F08CC090F08BC0F2
:102560008FF08AC08EF091C0AEF090C0ADF08FC0F9
:10257000ACF08EC0ABF08FC089F18EC088F1010144
:10258000000188C1DFF0FBEF2BF0FFFFC1A1CDEF11
:1025900012F0B70EB116BD6ABD6AC1918A928B82E4
:1025A0008B84000CFFFFFFFF010188BFF7EF12F0E3
:1025B00088510008D8B0F7EF12F07F0ED880885508
:1025C000896F000189C1BEFFC1B1EDEF12F0B70EF6
:1025D000B1168B940C0EBD6EC1818A928A848B8257
:1025E00001018851016E25EF13F025EF13F088BF2C
:1025F000FCEF12F01DEF13F08851800A0008D8A0FC
:1026000004EF13F0810E886F7F0E8825896F00011B
:1026100089C1BEFFC1B113EF13F0B70EB1168B9491
:102620000C0EBD6EC1818A928A948B820101885101
:10263000016E25EF13F025EF13F00001C5EC12F049
:10264000000E016E010125EF13F000015DEF13F0A4
:10265000FFFF8A8CC284C2B42BEF13F0C4501C6EEF
:10266000DCA761EF13F0DFC083F1D951800A006E5F
:1026700001018351800A005CD8B043EF13F00001E0
:10268000D9C083F10101000ED8800001DA55800A1B
:10269000006E01018351800A005CD8B458EF13F03A
:1026A000D8A058EF13F00001DA1D0101836F832BCE
:1026B000000183C188F1D3EF12F001C0CCF064EFC8
:1026C00013F0C5EC12F0CC6B8A9C00EF2CF0FFFFEE
:1026D000D8900101CD31CD1B0001CDC1CEF101015A
:1026E000CE3BCD51CE19500B016E0001000CFFFF07
:1026F000FFFFE5510101815DD8B0A9EF13F08151D1
:10270000812B1A0FE96E010EEA6ED8B0EA2AEF505B
:102710000001E66FE6C0CDF167EC13F00152D8A4DA
:102720009EEF13F0E63BF00EE6170101822B010E3F
:10273000016EABEF13F0A9EF13F000010101800768
:102740000001E56B010E0101826F000E016EABEF1F
:1027500013F0000E016E0001000CFFFFFFFFE551BA
:102760000101815DD8B0E1EF13F08151812B1A0F87
:10277000E96E010EEA6ED8B0EA2AEF500001E76F69
:10278000E7C0CDF167EC13F00152D8A4D6EF13F0F7
:10279000E7510F0BE611E76FE75101017F27010EAB
:1027A000016EE3EF13F0E1EF13F000010101800788
:1027B0000001E56B010E0101826F000E016EE3EF77
:1027C00013F0000E016E0001000CFFFFFFFF01017E
:1027D00080070001E56B010E0101826F0001000C12
:1027E000FFFFFFFF0101C7517E270001C7C1C9F1EB
:1027F0000101C93BC9510F0B8009C96F0001E451A8
:10280000E42BE80F016E036AD8B0032A01500101DE
:10281000CB6F000103C0CCF1C9C1CDF167EC13F05F
:102820000101C9510118CD6F0001CCC1EAFFCBC134
:10283000E9FFCDC1EFFF0101C7510F0B8009C86F40
:102840000001E451E42BE80F016E036AD8B0032ABB
:1028500001500101CB6F000103C0CCF1C8C1CDF123
:1028600067EC13F00101C8510118CD6F0001CCC114
:10287000EAFFCBC1E9FFCDC1EFFF000CFFFFFFFF77
:10288000E6EC13F053EF14F0FFFF01017F53D8A4DF
:1028900050EF14F0010E016E58EF14F058EF14F0E1
:1028A00000013FEF14F0000E016E010158EF14F02B
:1028B0000001000CFFFFFFFFF250036EF29EA69C8A
:1028C000A68EA6840F01550EA76EAA0EA76EA6822D
:1028D00000000350F2120001000CFFFFFFFF010E89
:1028E000EA6EC60EE96EEF50D8B486EF14F00C0E07
:1028F000016E006A002EFED7012EFBD7F70E006E88
:10290000002EFED700000000EF2EF1D7B2EF1DF031
:10291000FFFF01018251006E010E005C0001D8B47E
:10292000C9EF16F0020E005CD8B4D5EF16F0030E16
:10293000005CD8B4D9EF16F0090E005CD8B4F9EFFA
:1029400016F00A0E005CD8B401EF17F05A0E005CC6
:10295000D8B433EF18F05B0E005CD8B437EF18F042
:102960007D0E005CD8B44DEF18F07F0E005CD8B43B
:102970004DEF18F0810E005CD8B44DEF18F0830EC7
:10298000005CD8B44DEF18F0850E005CD8B44DEF64
:1029900018F0870E005CD8B44DEF18F0890E005C7B
:1029A000D8B44DEF18F08B0E005CD8B44DEF18F092
:1029B0008D0E005CD8B44DEF18F08F0E005CD8B4CB
:1029C0004DEF18F0910E005CD8B44DEF18F0930E57
:1029D000005CD8B44DEF18F0950E005CD8B44DEF04
:1029E00018F0970E005CD8B44DEF18F0990E005C0B
:1029F000D8B44DEF18F09B0E005CD8B44DEF18F032
:102A00009D0E005CD8B44DEF18F09F0E005CD8B45A
:102A10004DEF18F0A10E005CD8B44DEF18F0A30EE6
:102A2000005CD8B44DEF18F0A50E005CD8B44DEFA3
:102A300018F0A70E005CD8B44DEF18F0A90E005C9A
:102A4000D8B44DEF18F0AB0E005CD8B44DEF18F0D1
:102A5000AD0E005CD8B44DEF18F0AF0E005CD8B4EA
:102A60004DEF18F0B10E005CD8B44DEF18F0B30E76
:102A7000005CD8B44DEF18F0B50E005CD8B44DEF43
:102A800018F0B70E005CD8B44DEF18F0B90E005C2A
:102A9000D8B44DEF18F0BB0E005CD8B44DEF18F071
:102AA000BD0E005CD8B44DEF18F0BF0E005CD8B47A
:102AB0004DEF18F0C10E005CD8B44DEF18F0C30E06
:102AC000005CD8B44DEF18F0C50E005CD8B44DEFE3
:102AD00018F0C90E005CD8B44DEF18F0CB0E005CB6
:102AE000D8B44DEF18F0DF0E005CD8B44DEF18F0FD
:102AF000E10E005CD8B44DEF18F0E30E005CD8B4E2
:102B00004DEF18F0E50E005CD8B44DEF18F0E70E6D
:102B1000005CD8B44DEF18F0E90E005CD8B44DEF6E
:102B200018F0EB0E005CD8B44DEF18F0ED0E005C21
:102B3000D8B44DEF18F0EF0E005CD8B44DEF18F09C
:102B4000F10E005CD8B44DEF18F0F30E005CD8B471
:102B50004DEF18F0F50E005CD8B44DEF18F0F70EFD
:102B6000005CD8B44DEF18F0F90E005CD8B44DEF0E
:102B700018F0FB0E005CD8B44DEF18F01F0E005C8F
:102B8000D8B44DEF18F0210E005CD8B44DEF18F01A
:102B9000230E005CD8B44DEF18F0250E005CD8B4BD
:102BA0004DEF18F0270E005CD8B44DEF18F0290E49
:102BB000005CD8B44DEF18F02B0E005CD8B44DEF8C
:102BC00018F02D0E005CD8B44DEF18F02F0E005CFD
:102BD000D8B44DEF18F0390E005CD8B44DEF18F0B2
:102BE0003F0E005CD8B44DEF18F0410E005CD8B435
:102BF0004DEF18F0430E005CD8B44DEF18F0450EC1
:102C0000005CD8B44DEF18F0470E005CD8B44DEF1F
:102C100018F0490E005CD8B44DEF18F04B0E005C74
:102C2000D8B44DEF18F04D0E005CD8B44DEF18F04D
:102C30004F0E005CD8B44DEF18F0570E005CD8B4BE
:102C40004DEF18F0170E005CD8B44DEF18F0190EC8
:102C5000005CD8B44DEF18F01B0E005CD8B44DEFFB
:102C600018F0710E005CD8B44DEF18F0730E005CD4
:102C7000D8B44DEF18F0750E005CD8B44DEF18F0D5
:102C8000790E005CD8B44DEF18F0CD0E005CD8B4CE
:102C90004DEF18F0CF0E005CD8B44DEF18F0D10E08
:102CA000005CD8B44DEF18F0D30E005CD8B44DEFF3
:102CB00018F0D50E005CD8B44DEF18F0D70E005CBC
:102CC000D8B44DEF18F0D90E005CD8B44DEF18F021
:102CD000DB0E005CD8B44DEF18F0DD0E005CD8B40C
:102CE0004DEF18F0200E005CD8B451EF18F0220E12
:102CF000005CD8B45EEF18F0240E005CD8B46BEF23
:102D000018F0260E005CD8B478EF18F0280E005C9E
:102D1000D8B485EF18F02A0E005CD8B492EF18F002
:102D20002C0E005CD8B49FEF18F02E0E005CD8B4C7
:102D3000ACEF18F0300E005CD8B4B9EF18F03A0ED2
:102D4000005CD8B4C6EF18F0D20E005CD8B42DEFFA
:102D500019F0D40E005CD8B43AEF19F0D60E005C2E
:102D6000D8B447EF19F0D80E005CD8B454EF19F07E
:102D7000DA0E005CD8B461EF19F0DC0E005CD8B458
:102D800013EF1DF0DE0E005CD8B420EF1DF0B9EF9C
:102D90001DF0E553D8A4CFEF16F0BAEF1DF00101F6
:102DA000816B7F6B020E826F000178EC13F0BAEF3B
:102DB0001DF0AEEC13F0012CF7EF16F0E753D8A49A
:102DC000E8EF16F0FD0E0101826FF6EF16F000013C
:102DD000E251E75DD8A4F3EF16F0090E0101826F0E
:102DE000F6EF16F00001E6EC13F001010001BAEF76
:102DF0001DF078EC13F0E46B01017E6B0001BAEF7B
:102E00001DF0AEEC13F0012C31EF18F0E751006E1D
:102E1000420E005CD8B45FEF17F05A0E005CD8B4D5
:102E200079EF17F04B0E005CD8B48DEF17F04C0E15
:102E3000005CD8B492EF17F0CC0E005CD8B497EFDA
:102E400017F0470E005CD8B49CEF17F0C70E005C7B
:102E5000D8B4A1EF17F04D0E005CD8B4A6EF17F070
:102E60004F0E005CD8B4ABEF17F0430E005CD8B443
:102E7000B0EF17F0C30E005CD8B4B5EF17F0440EF6
:102E8000005CD8B4BAEF17F0490E005CD8B402EF7A
:102E900018F0560E005CD8B41AEF18F0410E005C22
:102EA000D8B41FEF18F0530E005CD8B424EF18F01C
:102EB000520E005CD8B429EF18F02FEF18F0020E74
:102EC0000101C76F0001F1EC13F0010E0101C76FA2
:102ED0000001F1EC13F001017E1DC56FC52B00014F
:102EE000C5C1C7F1F1EC13F05A0E0101826F30EF4A
:102EF00018F07A0E0101C76F0001F1EC13F0010127
:102F00007E1DC56FC52B0001C5C1C7F1F1EC13F0E3
:102F10005A0E0101826F30EF18F01F0E0101826F0F
:102F200030EF18F07D0E0101826F30EF18F0C90EFE
:102F30000101826F30EF18F0DF0E0101826F30EF78
:102F400018F0F90E0101826F30EF18F0E6EC13F083
:102F5000010130EF18F03D0E0101826F30EF18F0E3
:102F6000150E0101826F30EF18F06F0E0101826FB4
:102F700030EF18F0640E0101C76F0001F1EC13F09F
:102F8000DCC0C7F1F1EC13F0C3C0C5F10101C66BA1
:102F90000001C3C0C7F1F1EC13F0C2510101C56FCC
:102FA0000001C351000B0101C66F0001C5C1C7F18B
:102FB000F1EC13F0C5C0C5F10101C66B0001C5C03D
:102FC000C7F1F1EC13F0C4510101C56F0001C55107
:102FD000000B0101C66F0001C5C1C7F1F1EC13F090
:102FE000CCC0C7F1F1EC13F001017E1DC56FC52BFC
:102FF0000001C5C1C7F1F1EC13F05A0E0101826F57
:1030000030EF18F0690E0101C76F0001F1EC13F009
:10301000DCC0C7F1F1EC13F001017E1DC56FC52BBB
:103020000001C5C1C7F1F1EC13F05A0E0101826F26
:1030300030EF18F0790E0101826F30EF18F0CD0EED
:103040000101826F30EF18F0D10E0101826F30EF75
:1030500018F0DB0E0101826F30EF18F00001010162
:103060000001BAEF1DF078EC13F0BAEF1DF0AEECF2
:1030700013F0012C4BEF18F044EC14F00152D8B4CB
:103080004BEF18F00101802B0001E36BE56B010EA3
:103090000101826F0001BAEF1DF078EC13F0BAEF76
:1030A0001DF0AEEC13F0012C5CEF18F0E7C01AF144
:1030B000210E0101826F0001BAEF1DF0AEEC13F09A
:1030C000012C69EF18F0E7C01BF1230E0101826F9C
:1030D0000001BAEF1DF0AEEC13F0012C76EF18F002
:1030E000E7C01CF1250E0101826F0001BAEF1DF04F
:1030F000AEEC13F0012C83EF18F0E7C01DF1270EA2
:103100000101826F0001BAEF1DF0AEEC13F0012C4B
:1031100090EF18F0E7C01EF1290E0101826F000147
:10312000BAEF1DF0AEEC13F0012C9DEF18F0E7C0E4
:103130001FF12B0E0101826F0001BAEF1DF0AEEC02
:1031400013F0012CAAEF18F0E7C020F12D0E0101B9
:10315000826F0001BAEF1DF0AEEC13F0012CB7EF57
:1031600018F0E7C021F12F0E0101826F0001BAEFC4
:103170001DF0AEEC13F0012CC4EF18F0E7C022F103
:10318000390E0101826F0001BAEF1DF0AEEC13F0B1
:10319000012C2BEF19F044EC14F00152D8B42BEFB2
:1031A00019F01AC1D9F01BC1DAF0E2510408D8B401
:1031B000DFEF18F0E2510508D8A4EDEF18F0D9516F
:1031C0007F08D8B0E6EF18F07F0ED96FDA517F088C
:1031D000D8B0EDEF18F07F0EDA6F1CC186F01DC17C
:1031E00087F01EC188F00101C66B00010101C76BA9
:1031F000C7512011006E1F51036E00501E6E00015A
:1032000003C01FF00101C66B00010101C76BC7516C
:103210002211006E2151036E0050206E000103C088
:1032200021F06B0E0101C76F0001F1EC13F00101F9
:103230007E1DC56FC52B0001C5C1C7F1F1EC13F0B0
:103240005A0E0101826F802B0001E36BE56B010ECA
:103250000101826F0001BAEF1DF0AEEC13F0012CFA
:1032600038EF19F0E7C01AF1D30E0101826F0001A7
:10327000BAEF1DF0AEEC13F0012C45EF19F0E7C0EA
:103280001BF1D50E0101826F0001BAEF1DF0AEEC0B
:1032900013F0012C52EF19F0E7C01CF1D70E010119
:1032A000826F0001BAEF1DF0AEEC13F0012C5FEF5E
:1032B00019F0E7C01DF1D90E0101826F0001BAEFCC
:1032C0001DF0AEEC13F0012C11EF1DF044EC14F0E6
:1032D0000152D8B411EF1DF01AC183F101018351DD
:1032E000006E010E005C0001D8B4F6EF19F0020E7A
:1032F000005CD8B4FEEF19F0030E005CD8B404EF04
:103300001AF0040E005CD8B473EF1AF0050E005CDE
:10331000D8B477EF1AF0060E005CD8B488EF1AF034
:10332000070E005CD8B499EF1AF0080E005CD8B410
:10333000ADEF1AF0090E005CD8B4B5EF1AF00A0E22
:10334000005CD8B4BBEF1AF00B0E005CD8B4C0EF31
:103350001AF0FF0E005CD8B4DAEF1AF0FE0E005C33
:10336000D8B4F2EF1AF0FD0E005CD8B40BEF1BF0EE
:10337000FC0E005CD8B424EF1BF0FB0E005CD8B44C
:103380003EEF1BF0FA0E005CD8B463EF1BF0F90EB1
:10339000005CD8B488EF1BF0F80E005CD8B4C5EF21
:1033A0001BF0F70E005CD8B4ECEF1BF0F60E005CDF
:1033B000D8B413EF1CF0F50E005CD8B43AEF1CF053
:1033C000F40E005CD8B453EF1CF0F30E005CD8B4DC
:1033D0006BEF1CF0F20E005CD8B484EF1CF0F10E21
:1033E000005CD8B4A7EF1CF0CCEF1CF01BC186F03A
:1033F0001CC187F01DC188F0DFEF1CF01BC1D9F0A4
:103400001CC1DAF0DFEF1CF0036A01011B5100015F
:10341000D56F03C0D6F0D6BF1AEF1AF0D653D8A492
:1034200017EF1AF0D551B408D8B01AEF1AF0D66BCE
:10343000B40ED56F036A01011C510001D76F03C0A0
:10344000D8F0D8BF30EF1AF0D853D8A42DEF1AF027
:10345000D751B408D8B030EF1AF0D86BB40ED76F8C
:1034600089510308D8A471EF1AF0D8C0C6F1D7C0AB
:10347000C5F10101C86B060EC76F0001BBEC09F076
:1034800002C0C6F101C0C5F102C0C8F101C0C7F158
:103490000101CA6B070EC96F000162EC0CF002C09B
:1034A000D8F001C0D7F0D6C0C6F1D5C0C5F1010132
:1034B000C86B060EC76F0001BBEC09F002C0C6F175
:1034C00001C0C5F102C0C8F101C0C7F10101CA6B5A
:1034D000070EC96F000162EC0CF002C0D6F001C00B
:1034E000D5F0DFEF1CF01BC1DBF0DFEF1CF00101BA
:1034F000C66B00010101C76BC7511C11006E1B5147
:10350000036E00501E6E000103C01FF0DFEF1CF0C1
:103510000101C66B00010101C76BC7511C11006E90
:103520001B51036E0050206E000103C021F0DFEF3D
:103530001CF001011B53D8B4A2EF1AF000011BC10B
:1035400022F001011C53D8B4AAEF1AF000011CC1EB
:1035500023F001010001DFEF1CF01BC1A6F01CC12C
:10356000A7F01DC1A8F0DFEF1CF01BC1A9F01CC122
:10357000AAF0DFEF1CF0B06B1BC1AFF0DFEF1CF067
:1035800001011B53D8A4CAEF1AF000018599CCEFB2
:103590001AF001010001858901011C53D8A4D6EF5E
:1035A0001AF00001859BD8EF1AF001010001858B0C
:1035B000DFEF1CF0730E0101C76F0001F1EC13F097
:1035C00083C1C7F1F1EC13F086C0C7F1F1EC13F041
:1035D00087C0C7F1F1EC13F088C0C7F1F1EC13F02C
:1035E000DFEF1CF0730E0101C76F0001F1EC13F067
:1035F00083C1C7F1F1EC13F0D9C0C7F1F1EC13F0BE
:10360000DAC0C7F1F1EC13F00101C76B0001F1EC76
:1036100013F0DFEF1CF0730E0101C76F0001F1EC36
:1036200013F083C1C7F1F1EC13F0D5C0C7F1F1EC91
:1036300013F0D7C0C7F1F1EC13F00101C76B000123
:10364000F1EC13F0DFEF1CF0730E0101C76F000106
:10365000F1EC13F083C1C7F1F1EC13F0DBC0C7F15B
:10366000F1EC13F00101C76B0001F1EC13F0010163
:10367000C76B0001F1EC13F0DFEF1CF0730E0101DA
:10368000C76F0001F1EC13F083C1C7F1F1EC13F047
:103690001FC0C5F10101C66B00011FC0C7F1F1ECED
:1036A00013F01E500101C56F1F50000BC66F0001C3
:1036B000C5C1C7F1F1EC13F00101C76B0001F1ECDA
:1036C00013F0DFEF1CF0730E0101C76F0001F1EC86
:1036D00013F083C1C7F1F1EC13F021C0C5F1010172
:1036E000C66B000121C0C7F1F1EC13F020500101BD
:1036F000C56F2150000BC66F0001C5C1C7F1F1ECC9
:1037000013F00101C76B0001F1EC13F0DFEF1CF0C7
:10371000730E0101C76F0001F1EC13F083C1C7F113
:10372000F1EC13F0F86A7F0EF76EFA0EF66E0900F0
:10373000FFFFF5500800FFFFF5CF03F0F86A010125
:10374000C56F000103C0C6F10101C53DADEF1BF01F
:10375000C63DADEF1BF0B5EF1BF0010EC76F0001CA
:10376000F1EC13F0B9EF1BF00101C76B0001F1ECB4
:1037700013F00101C76B0001F1EC13F00101C76BFD
:103780000001F1EC13F0DFEF1CF0730E0101C76FC5
:103790000001F1EC13F083C1C7F1F1EC13F0D0C0DC
:1037A000C5F10101C66B0001D0C0C7F1F1EC13F007
:1037B000CF510101C56F0001D051000B0101C66F4F
:1037C0000001C5C1C7F1F1EC13F00101C76B0001A5
:1037D000F1EC13F0DFEF1CF0730E0101C76F000175
:1037E000F1EC13F083C1C7F1F1EC13F0D2C0C5F1D5
:1037F0000101C66B0001D2C0C7F1F1EC13F0D15149
:103800000101C56F0001D251000B0101C66F00011B
:10381000C5C1C7F1F1EC13F00101C76B0001F1EC78
:1038200013F0DFEF1CF0730E0101C76F0001F1EC24
:1038300013F083C1C7F1F1EC13F0CEC0C5F1010163
:10384000C66B0001CEC0C7F1F1EC13F0CD51010100
:10385000C56F0001CE51000B0101C66F0001C5C14B
:10386000C7F1F1EC13F00101C76B0001F1EC13F0AB
:10387000DFEF1CF0730E0101C76F0001F1EC13F0D4
:1038800083C1C7F1F1EC13F022C0C7F1F1EC13F0E2
:1038900023C0C7F1F1EC13F00101C76B0001F1EC9B
:1038A00013F0DFEF1CF0730E0101C76F0001F1ECA4
:1038B00013F083C1C7F1F1EC13F0A6C0C7F1F1EC2E
:1038C00013F0A7C0C7F1F1EC13F0A8C0C7F1F1ECF9
:1038D00013F0DFEF1CF0730E0101C76F0001F1EC74
:1038E00013F083C1C7F1F1EC13F0A9C0C7F1F1ECFB
:1038F00013F0AAC0C7F1F1EC13F00101C76B00018E
:10390000F1EC13F0DFEF1CF0730E0101C76F000143
:10391000F1EC13F083C1C7F1F1EC13F0AF510101E9
:10392000C56F0001B051000B0101C66F0001C5C198
:10393000C7F1F1EC13F00101C76B0001F1EC13F0DA
:103940000101C76B0001F1EC13F0DFEF1CF0730E07
:103950000101C76F0001F1EC13F083C1C7F1F1EC75
:1039600013F0000E85B9010E0101C56F0001C5C13C
:10397000C7F1F1EC13F0000E85BB010E0101C56F1C
:103980000001C5C1C7F1F1EC13F00101C76B0001E3
:10399000F1EC13F0DFEF1CF0010E0101846F845194
:1039A0000408D8A0DCEF1CF0C76B0001F1EC13F0A9
:1039B0000101842BCFEF1CF00001DFEF1CF00101AF
:1039C00083513108D8A0FEEF1CF0730EC76F0001C1
:1039D000F1EC13F083C1C7F1F1EC13F00101C76BF7
:1039E0000001F1EC13F00101C76B0001F1EC13F0E1
:1039F0000101C76B0001F1EC13F001017E1DC56FE1
:103A0000C52B0001C5C1C7F1F1EC13F05A0E01013D
:103A1000826F802B0001E36BE56B010E0101826F69
:103A20000001BAEF1DF0AEEC13F0012C1EEF1DF0FB
:103A3000E7C01AF1DD0E0101826F0001BAEF1DF03F
:103A4000AEEC13F0012CB7EF1DF044EC14F0015272
:103A5000D8B4B7EF1DF001011A53D8A435EF1DF00B
:103A60000001C19937EF1DF001010001C189C1A911
:103A7000AAEF1DF0F29CF29EF2BE3BEF1DF0010199
:103A8000846B84511F08D8A075EF1DF0D890843541
:103A9000026E036A03360250850FE96E010E0320A1
:103AA000EA6ED8908435C00FC76F7F0EC86FD8B04C
:103AB000C82BC96BD8B0C92BCA6BD8B0CA2B0001B0
:103AC000C9C1F8FFC8C1F7FFC7C1F6FF0900FFFF72
:103AD000F5500800FFFFF5CF03F0F86AEF6E03C062
:103AE000ECFF0101842B41EF1DF0FF0EC46FC36F8B
:103AF000D08CF86A7F0EF76EC00EF66E0A00FFFFDC
:103B0000010EEA6E850EE96E400E026E000102C0E3
:103B100001F002040709026E022A3F0EF614D8A42F
:103B200095EF1DF0A6885BEC14F0EECFF5FF015287
:103B3000D8B4F5680F00070EF614070AD8A4A3EF4F
:103B40001DF05BEC14F00152D8A40106022E8DEF9B
:103B50001DF0F86A080E0101C56FFA0EC66F00016C
:103B60006EEF14F00101C52FF8D7FF000001BAEF86
:103B70001DF0C1850AEF2CF0FFFF01018251006E9C
:103B8000010E005C0001D8B436EF1EF03D0E005C63
:103B9000D8B43CEF1EF03E0E005CD8B440EF1EF0EF
:103BA000400E005CD8B44DEF1EF0420E005CD8B45D
:103BB0005AEF1EF0440E005CD8B467EF1EF0460EBC
:103BC000005CD8B474EF1EF0480E005CD8B481EFEE
:103BD0001EF04A0E005CD8B48EEF1EF04C0E005C56
:103BE000D8B49BEF1EF04E0E005CD8B4A8EF1EF0C8
:103BF000500E005CD8B4B5EF1EF0580E005CD8B47F
:103C0000C2EF1EF0150E005CD8B42FEF1FF0160E99
:103C1000005CD8B433EF1FF0180E005CD8B440EF4E
:103C20001FF01A0E005CD8B44DEF1FF01C0E005CA4
:103C3000D8B45AEF1FF06F0E005CD8B4CEEF1FF06F
:103C4000700E005CD8B4D2EF1FF0720E005CD8B4D6
:103C5000DFEF1FF0740E005CD8B4ECEF1FF0760EAF
:103C6000005CD8B4F9EF1FF065EF20F0E553D8A45D
:103C70003CEF1EF066EF20F078EC13F066EF20F0DA
:103C8000AEEC13F0012C4BEF1EF0E7C01AF13F0E23
:103C90000101826F000166EF20F0AEEC13F0012C01
:103CA00058EF1EF0E7C01BF1410E0101826F0001C9
:103CB00066EF20F0AEEC13F0012C65EF1EF0E7C0CC
:103CC0001CF1430E0101826F000166EF20F0AEECA3
:103CD00013F0012C72EF1EF0E7C01DF1450E01013B
:103CE000826F000166EF20F0AEEC13F0012C7FEF45
:103CF0001EF0E7C01EF1470E0101826F000166EF62
:103D000020F0AEEC13F0012C8CEF1EF0E7C01FF199
:103D1000490E0101826F000166EF20F0AEEC13F056
:103D2000012C99EF1EF0E7C020F14B0E0101826FCC
:103D3000000166EF20F0AEEC13F0012CA6EF1EF0B0
:103D4000E7C021F14D0E0101826F000166EF20F006
:103D5000AEEC13F0012CB3EF1EF0E7C022F14F0ED2
:103D60000101826F000166EF20F0AEEC13F0012C30
:103D7000C0EF1EF0E7C023F1570E0101826F000172
:103D800066EF20F0AEEC13F0012C2DEF1FF044ECA9
:103D900014F00152D8B42DEF1FF01AC1DBF0DB5341
:103DA000D8A4D5EF1EF0040EDB6F0101846B000177
:103DB0000101856B85511F11006E1E51036E00506D
:103DC0000001D56F03C0D6F0D6BFF3EF1EF0D65377
:103DD000D8A4F0EF1EF0D551B408D8B0F3EF1EF020
:103DE000D66BB40ED56F0101846B00010101856BA8
:103DF00085512111006E2051036E00500001D76FD4
:103E000003C0D8F0D8BF11EF1FF0D853D8A40EEFDD
:103E10001FF0D751B408D8B011EF1FF0D86BB40E13
:103E2000D76F23C11DF06F0E0101C76F0001F1ECC8
:103E300013F001017E1DC56FC52B0001C5C1C7F17F
:103E4000F1EC13F05A0E0101826F802B0001E36B3D
:103E5000E56B010E0101826F000166EF20F078EC46
:103E600013F066EF20F0AEEC13F0012C3EEF1FF0E4
:103E7000E7C01AF1170E0101826F000166EF20F012
:103E8000AEEC13F0012C4BEF1FF0E7C01BF1190E45
:103E90000101826F000166EF20F0AEEC13F0012CFF
:103EA00058EF1FF0E7C01CF11B0E0101826F0001EB
:103EB00066EF20F0AEEC13F0012CCCEF1FF044ECD9
:103EC00014F00152D8B4CCEF1FF0DCAB77EF1FF049
:103ED00001011A510808D8A474EF1FF0080E000160
:103EE000DC6FCE6BCD6B0101AFEF1FF000011AC18B
:103EF000DCF0DC510808D8A480EF1FF0CE6BCD6B4E
:103F0000DC512808D8A491EF1FF0C3C0CBF0C2C089
:103F1000CAF0CBC0E1F0CAC0E0F01B92C183AEEFA3
:103F20001FF00101846B00010101856B85511C119B
:103F3000006E1B51036E00500001CA6F03C0CBF02E
:103F4000C1932B6A2A6AC3C029F0C2C028F029AEE7
:103F5000ACEF1FF02A062B061B861B920101630E95
:103F6000C76F0001F1EC13F0DDC0C7F1F1EC13F005
:103F700001017E1DC56FC52B0001C5C1C7F1F1EC64
:103F800013F05A0E0101826F802B0001E36BE56B89
:103F9000010E0101826F000166EF20F078EC13F052
:103FA00066EF20F0AEEC13F0012CDDEF1FF0E7C060
:103FB0001AF1710E0101826F000166EF20F0AEEC84
:103FC00013F0012CEAEF1FF0E7C01BF1730E0101A3
:103FD000826F000166EF20F0AEEC13F0012CF7EFDA
:103FE0001FF0E7C01CF1750E0101826F000166EF42
:103FF00020F0AEEC13F0012C63EF20F044EC14F051
:104000000152D8B463EF20F01AC1DCF00101846BD7
:1040100000010101856B85511C11006E1B51036E5F
:104020000050000103C001F0026A036A03C0C9F036
:1040300002C0C8F001C0C7F000C0C6F0C653D8A483
:1040400034EF20F0C7518008D8A434EF20F0C83DE9
:1040500034EF20F0C93D34EF20F0FF0EC96FC86F78
:10406000800EC76F010EC66FC251C65FC351C75BDA
:10407000000EC85BC95BC183276A266A256A246A69
:10408000C3C0E1F0C2C0E0F08587E30E0101C76F55
:104090000001F1EC13F0DDC0C7F1F1EC13F0010108
:1040A0007E1DC56FC52B0001C5C1C7F1F1EC13F032
:1040B0005A0E0101826F802B0001E36BE56B010E4C
:1040C0000101826F000166EF20F0C18713EF2CF031
:1040D000FFFF01018251006E010E005C0001D8B4A7
:1040E0009BEF21F07A0E005CD8B4A1EF21F07E0E98
:1040F000005CD8B401EF24F0800E005CD8B40EEF61
:1041000024F0820E005CD8B41BEF24F0840E005C17
:10411000D8B428EF24F0860E005CD8B435EF24F034
:10412000880E005CD8B442EF24F08A0E005CD8B44C
:104130004FEF24F08C0E005CD8B45CEF24F08E0EB0
:10414000005CD8B469EF24F0900E005CD8B476EF30
:1041500024F0920E005CD8B483EF24F0940E005C3F
:10416000D8B490EF24F0960E005CD8B49DEF24F004
:10417000980E005CD8B4AAEF24F09A0E005CD8B474
:10418000B7EF24F09C0E005CD8B4C4EF24F09E0E70
:10419000005CD8B4D1EF24F0A00E005CD8B4DEEF00
:1041A00024F0A20E005CD8B4EBEF24F0A40E005C67
:1041B000D8B4F8EF24F0A60E005CD8B405EF25F0D3
:1041C000A80E005CD8B412EF25F0AA0E005CD8B49B
:1041D0001FEF25F0AC0E005CD8B42CEF25F0AE0E2E
:1041E000005CD8B439EF25F0B00E005CD8B446EFCF
:1041F00025F0B20E005CD8B453EF25F0B40E005C8D
:10420000D8B460EF25F0B60E005CD8B46DEF25F0A1
:10421000B80E005CD8B47AEF25F0BA0E005CD8B4C2
:1042200087EF25F0BC0E005CD8B494EF25F0BE0EED
:10423000005CD8B4A1EF25F0C00E005CD8B4AEEF9E
:1042400025F0C20E005CD8B4BBEF25F0C40E005CB4
:10425000D8B4C8EF25F0C60E005CD8B4D5EF25F071
:10426000CA0E005CD8B405EF27F0CC0E005CD8B4C1
:1042700012EF27F0E00E005CD8B4CFEF27F0E20E8B
:10428000005CD8B4DCEF27F0E40E005CD8B4E9EFB2
:1042900027F0E60E005CD8B4F6EF27F0E80E005CDD
:1042A000D8B403EF28F0EA0E005CD8B410EF28F081
:1042B000EC0E005CD8B41DEF28F0EE0E005CD8B414
:1042C0002AEF28F0F00E005CD8B437EF28F0F20E99
:1042D000005CD8B444EF28F0F40E005CD8B451EF81
:1042E00028F0F60E005CD8B45EEF28F0F80E005C03
:1042F000D8B46BEF28F0FA0E005CD8B4E7EF28F0E2
:10430000FC0E005CD8B4F4EF28F0CE0E005CD8B4FC
:104310007DEF29F0D00E005CD8B48AEF29F0FD0EB5
:10432000005CD8B4B3EF29F0FE0E005CD8B4B9EF4E
:1043300029F0BDEF29F0E553D8A4A1EF21F0C0EF9B
:1043400029F0AEEC13F0012CFFEF23F0760E010103
:10435000C76F0001F1EC13F0E751006E010E005C35
:10436000D8B4F6EF21F0020E005CD8B42EEF22F0A4
:10437000040E005CD8B47AEF22F0050E005CD8B4CD
:10438000B0EF22F0060E005CD8B40CEF23F0200E44
:10439000005CD8B476EF23F0210E005CD8B4B1EF06
:1043A00023F0220E005CD8B4B1EF23F0230E005CA2
:1043B000D8B4B1EF23F0240E005CD8B4B1EF23F0F1
:1043C000250E005CD8B4B1EF23F0260E005CD8B403
:1043D000B1EF23F0270E005CD8B4B1EF23F0280E24
:1043E000005CD8B4B1EF23F0DCEF23F0E7C0C7F1F5
:1043F000F1EC13F0D9C0C7F1F1EC13F0DAC0C7F15A
:10440000F1EC13F086C0C7F1F1EC13F087C0C7F1EF
:10441000F1EC13F088C0C7F1F1EC13F00101C76BA8
:104420000001F1EC13F00101C76B0001F1EC13F096
:104430000101C76B0001F1EC13F00101C76B000132
:10444000F1EC13F0000E85B7010E0101876F00013A
:1044500087C1C7F1F1EC13F0F2EF23F0E7C0C7F129
:10446000F1EC13F0DBC0C7F1F1EC13F0CCC0C7F1F5
:10447000F1EC13F0D6C087F10101886B0001D6C0C2
:10448000C7F1F1EC13F0D5510101876F0001D6514E
:10449000000B0101886F000187C1C7F1F1EC13F037
:1044A000D8C087F10101886B0001D8C0C7F1F1ECD9
:1044B00013F0D7510101876F0001D851000B0101A2
:1044C000886F000187C1C7F1F1EC13F01DC0C7F17F
:1044D000F1EC13F01CC0C7F1F1EC13F00101C76B54
:1044E0000001F1EC13F00101C76B0001F1EC13F0D6
:1044F000F2EF23F0E7C0C7F1F1EC13F0DDC0C7F134
:10450000F1EC13F00101C76B0001F1EC13F00101B4
:10451000C76B0001F1EC13F00101C76B0001F1EC76
:1045200013F00101C76B0001F1EC13F00101C76B3F
:104530000001F1EC13F00101C76B0001F1EC13F085
:104540000101C76B0001F1EC13F00101C76B000121
:10455000F1EC13F0DCC0C7F1F1EC13F0F2EF23F053
:10456000E7C0C7F1F1EC13F0D0C087F10101886B0F
:104570000001D0C0C7F1F1EC13F0CF510101876FFA
:104580000001D051000B0101886F000187C1C7F104
:10459000F1EC13F00101C76B0001F1EC13F0D2C094
:1045A00087F10101886B0001D2C0C7F1F1EC13F073
:1045B000D1510101876F0001D251000B0101886FB9
:1045C000000187C1C7F1F1EC13F00101C76B0001D5
:1045D000F1EC13F0CEC087F10101886B0001CEC071
:1045E000C7F1F1EC13F0CD510101876F0001CE51FD
:1045F000000B0101886F000187C1C7F1F1EC13F0D6
:104600000101C76B0001F1EC13F00101C76B000160
:10461000F1EC13F0F2EF23F0E7C0C7F1F1EC13F087
:1046200064C087F10101886B000164C0C7F1F1EC3F
:1046300013F063500101876F6450000B886F000115
:1046400087C1C7F1F1EC13F066C087F10101886BF7
:10465000000166C0C7F1F1EC13F065500101876FEE
:104660006650000B886F000187C1C7F1F1EC13F0B1
:1046700068C087F10101886B000168C0C7F1F1ECE7
:1046800013F067500101876F6850000B886F0001BD
:1046900087C1C7F1F1EC13F06AC087F10101886BA3
:1046A00000016AC0C7F1F1EC13F069500101876F96
:1046B0006A50000B886F000187C1C7F1F1EC13F05D
:1046C0006CC087F10101886B00016CC0C7F1F1EC8F
:1046D00013F06B500101876F6C50000B886F000165
:1046E00087C1C7F1F1EC13F0F2EF23F0E7C0C7F197
:1046F000F1EC13F0020E0101C76F0001F1EC13F0B1
:10470000010E0101C76F0001F1EC13F00101C76B4D
:104710000001F1EC13F00101C76B0001F1EC13F0A3
:10472000080E0101C76F0001F1EC13F00101C76B26
:104730000001F1EC13F00101C76B0001F1EC13F083
:104740000101C76B0001F1EC13F00101C76B00011F
:10475000F1EC13F00101C76B0001F1EC13F0F2EF83
:1047600023F0E7C0C7F1F1EC13F00A0E0101846FEA
:10477000210E0001E75D0101836F83BFCAEF23F0C3
:1047800083510008D8B0CAEF23F00A0E84278307AC
:10479000BDEF23F00A0E845D836F8351800A006EA3
:1047A0008451800A005CD8B0D9EF23F0832BCDEF81
:1047B00023F00001F2EF23F0010E0101836F83BFAC
:1047C000E7EF23F083510B08D8A0EFEF23F0C76B7E
:1047D0000001F1EC13F00101832BDFEF23F0000166
:1047E000F2EF23F001017E1DC56FC52B0001C5C18D
:1047F000C7F1F1EC13F05A0E0101826F0001C0EF16
:1048000029F0AEEC13F0012C0CEF24F0E7C01AF104
:104810007F0E0101826F0001C0EF29F0AEEC13F0B2
:10482000012C19EF24F0E7C01BF1810E0101826F0A
:104830000001C0EF29F0AEEC13F0012C26EF24F0BC
:10484000E7C01CF1830E0101826F0001C0EF29F067
:10485000AEEC13F0012C33EF24F0E7C01DF1850E10
:104860000101826F0001C0EF29F0AEEC13F0012CC2
:1048700040EF24F0E7C01EF1870E0101826F0001B6
:10488000C0EF29F0AEEC13F0012C4DEF24F0E7C09F
:104890001FF1890E0101826F0001C0EF29F0AEEC1B
:1048A00013F0012C5AEF24F0E7C020F18B0E010128
:1048B000826F0001C0EF29F0AEEC13F0012C67EF1E
:1048C00024F0E7C021F18D0E0101826F0001C0EFDD
:1048D00029F0AEEC13F0012C74EF24F0E7C022F1C4
:1048E0008F0E0101826F0001C0EF29F0AEEC13F0D2
:1048F000012C81EF24F0E7C023F1910E0101826FBA
:104900000001C0EF29F0AEEC13F0012C8EEF24F083
:10491000E7C024F1930E0101826F0001C0EF29F07E
:10492000AEEC13F0012C9BEF24F0E7C025F1950EBF
:104930000101826F0001C0EF29F0AEEC13F0012CF1
:10494000A8EF24F0E7C026F1970E0101826F000165
:10495000C0EF29F0AEEC13F0012CB5EF24F0E7C066
:1049600027F1990E0101826F0001C0EF29F0AEEC32
:1049700013F0012CC2EF24F0E7C028F19B0E0101D7
:10498000826F0001C0EF29F0AEEC13F0012CCFEFE5
:1049900024F0E7C029F19D0E0101826F0001C0EFF4
:1049A00029F0AEEC13F0012CDCEF24F0E7C02AF183
:1049B0009F0E0101826F0001C0EF29F0AEEC13F0F1
:1049C000012CE9EF24F0E7C02BF1A10E0101826F69
:1049D0000001C0EF29F0AEEC13F0012CF6EF24F04B
:1049E000E7C02CF1A30E0101826F0001C0EF29F096
:1049F000AEEC13F0012C03EF25F0E7C02DF1A50E6E
:104A00000101826F0001C0EF29F0AEEC13F0012C20
:104A100010EF25F0E7C02EF1A70E0101826F000113
:104A2000C0EF29F0AEEC13F0012C1DEF25F0E7C02C
:104A30002FF1A90E0101826F0001C0EF29F0AEEC49
:104A400013F0012C2AEF25F0E7C030F1AB0E010185
:104A5000826F0001C0EF29F0AEEC13F0012C37EFAC
:104A600025F0E7C031F1AD0E0101826F0001C0EF0A
:104A700029F0AEEC13F0012C44EF25F0E7C032F141
:104A8000AF0E0101826F0001C0EF29F0AEEC13F010
:104A9000012C51EF25F0E7C033F1B10E0101826F17
:104AA0000001C0EF29F0AEEC13F0012C5EEF25F011
:104AB000E7C034F1B30E0101826F0001C0EF29F0AD
:104AC000AEEC13F0012C6BEF25F0E7C035F1B50E1D
:104AD0000101826F0001C0EF29F0AEEC13F0012C50
:104AE00078EF25F0E7C036F1B70E0101826F0001C3
:104AF000C0EF29F0AEEC13F0012C85EF25F0E7C0F4
:104B000037F1B90E0101826F0001C0EF29F0AEEC60
:104B100013F0012C92EF25F0E7C038F1BB0E010134
:104B2000826F0001C0EF29F0AEEC13F0012C9FEF73
:104B300025F0E7C039F1BD0E0101826F0001C0EF21
:104B400029F0AEEC13F0012CACEF25F0E7C03AF100
:104B5000BF0E0101826F0001C0EF29F0AEEC13F02F
:104B6000012CB9EF25F0E7C03BF1C10E0101826FC6
:104B70000001C0EF29F0AEEC13F0012CC6EF25F0D8
:104B8000E7C03CF1C30E0101826F0001C0EF29F0C4
:104B9000AEEC13F0012CD3EF25F0E7C03DF1C50ECC
:104BA0000101826F0001C0EF29F0AEEC13F0012C7F
:104BB00003EF27F044EC14F00152D8B403EF27F0D0
:104BC0000101886B00010101896B89511B11006E85
:104BD0001A51036E0050636E000103C064F00101BE
:104BE000886B00010101896B89511D11616E1C5197
:104BF000626E886B00010101896B89511F11006E83
:104C00001E51036E0050656E000103C066F0010185
:104C1000886B00010101896B89512111006E2051BF
:104C2000036E0050676E000103C068F00101886BDD
:104C300000010101896B89512311006E2251036E1D
:104C40000050696E000103C06AF00101886B000129
:104C50000101896B89512511006E2451036E0050AA
:104C60006B6E000103C06CF00101886B0001010153
:104C7000896B89512711006E2651036E00506D6EAD
:104C8000000103C06EF00101886B00010101896B16
:104C900089512911006E2851036E00506F6E00017A
:104CA00003C070F00101886B00010101896B89511B
:104CB0002B11006E2A51036E0050716E000103C06B
:104CC00072F00101886B00010101896B89512D117E
:104CD000006E2C51036E0050736E000103C074F01F
:104CE0000101886B00010101896B89512F11006E50
:104CF0002E51036E0050756E000103C076F0010165
:104D0000886B00010101896B89513111006E3051AE
:104D1000036E0050776E000103C078F00101886BCC
:104D200000010101896B89513311006E3251036E0C
:104D30000050796E000103C07AF00101886B000118
:104D40000101896B89513511006E3451036E005099
:104D50007B6E000103C07CF00101886B0001010142
:104D6000896B89513711006E3651036E00507D6E8C
:104D7000000103C07EF00101886B00010101896B15
:104D800089513911006E3851036E00507F6E000159
:104D900003C080F00101886B00010101896B89511A
:104DA0003B11006E3A51036E00500001816F03C049
:104DB00082F00101886B00010101896B89513D116D
:104DC000006E3C51036E00500001836F03C084F0FD
:104DD000DC8F6C0E0101C76F0001F1EC13F00101D3
:104DE0007E1DC56FC52B0001C5C1C7F1F1EC13F0E5
:104DF0005A0E0101826F802B0001E36BE56B010EFF
:104E00000101826F0001C0EF29F0AEEC13F0012C1C
:104E100010EF27F0E7C01AF1CB0E0101826F0001FD
:104E2000C0EF29F0AEEC13F0012CCDEF27F0E251EA
:104E30000608D8A423EF27F001011A510208D8A4CC
:104E4000C6EF27F00001DCAB2CEF27F0C3C0E1F088
:104E5000C2C0E0F0C5EF27F0000E1BB2010E010842
:104E6000D8A43AEF27F01BAE37EF27F08581858570
:104E7000C5EF27F001011A53D8A442EF27F01B9881
:104E800043EF27F01B881BA64AEF27F00001CE6BEB
:104E9000CD6B01011B960001DC9D21C01FF020C0DD
:104EA0001EF064C03DF063C03CF062C039F061C0E8
:104EB00038F066C042F065C041F068C044F067C099
:104EC00043F06AC046F069C045F06CC048F06BC062
:104ED00047F06EC04AF06DC049F070C04CF06FC032
:104EE0004BF072C04EF071C04DF074C050F073C002
:104EF0004FF076C052F075C051F078C054F077C0D2
:104F000053F07AC056F079C055F07CC058F07BC0A1
:104F100057F07EC05AF07DC059F080C05CF07FC071
:104F20005BF082C05EF081C05DF084C060F083C041
:104F30005FF01BA2A1EF27F03B6A010E3A6EBAEFB9
:104F400027F02F6A2E6A2D6A2C6A336A326AC3C030
:104F500031F0C2C030F031AEB0EF27F03206330688
:104F600033C037F032C036F031C035F030C034F0E5
:104F70003B6A3A6A3E6A3F6A1B82C193180EDC6F35
:104F80008595CF0ECF6E2B0ECE6E01010001E36B27
:104F9000E56B010E0101826F0001C0EF29F0AEEC5C
:104FA00013F0012CDAEF27F0E7C01AF1E10E01014E
:104FB000826F0001C0EF29F0AEEC13F0012CE7EF97
:104FC00027F0E7C01BF1E30E0101826F0001C0EF83
:104FD00029F0AEEC13F0012CF4EF27F0E7C01CF140
:104FE000E50E0101826F0001C0EF29F0AEEC13F075
:104FF000012C01EF28F0E7C01DF1E70E0101826FDF
:105000000001C0EF29F0AEEC13F0012C0EEF28F0F8
:10501000E7C01EF1E90E0101826F0001C0EF29F027
:10502000AEEC13F0012C1BEF28F0E7C01FF1EB0EE4
:105030000101826F0001C0EF29F0AEEC13F0012CEA
:1050400028EF28F0E7C020F1ED0E0101826F00018A
:10505000C0EF29F0AEEC13F0012C35EF28F0E7C0DB
:1050600021F1EF0E0101826F0001C0EF29F0AEECDB
:1050700013F0012C42EF28F0E7C022F1F10E0101FC
:10508000826F0001C0EF29F0AEEC13F0012C4FEF5E
:1050900028F0E7C023F1F30E0101826F0001C0EF99
:1050A00029F0AEEC13F0012C5CEF28F0E7C024F1FE
:1050B000F50E0101826F0001C0EF29F0AEEC13F094
:1050C000012C69EF28F0E7C025F1F70E0101826F8E
:1050D0000001C0EF29F0AEEC13F0012CE5EF28F051
:1050E00044EC14F00152D8B4E5EF28F00101886BCC
:1050F00000010101896B89511B11006E1A51036E69
:105100000050636E000103C064F00101886B000170
:105110000101896B89511D11616E1C51626E886B92
:1051200000010101896B89511F11006E1E51036E30
:105130000050656E000103C066F00101886B00013C
:105140000101896B89512111006E2051036E0050BD
:10515000676E000103C068F00101886B0001010166
:10516000896B89512311006E2251036E0050696EC4
:10517000000103C06AF00101886B00010101896B25
:1051800089512511006E2451036E00506B6E000191
:1051900003C06CF0DC8F670E0101C76F0001F1ECFA
:1051A00013F001017E1DC56FC52B0001C5C1C7F1FC
:1051B000F1EC13F05A0E0101826F802B0001E36BBA
:1051C000E56B010E0101826F0001C0EF29F0AEEC2A
:1051D00013F0012CF2EF28F0E7C01AF1FB0E0101E9
:1051E000826F0001C0EF29F0AEEC13F0012C7BEFD1
:1051F00029F0E2510608D8A405EF29F001011A515F
:105200000208D8A474EF29F00001DCAB0EEF29F0FE
:10521000C3C0E1F0C2C0E0F073EF29F0000E1BB292
:10522000010E0108D8A41CEF29F085851BBE1AEFDA
:1052300029F0858373EF29F001011A53D8A424EFD4
:1052400029F01B9825EF29F01B881BA62CEF29F0CD
:105250000001CE6BCD6B01011B960001DC9D64C08B
:105260003DF063C03CF062C039F061C038F066C008
:1052700042F065C041F068C044F067C043F06AC0C6
:1052800046F069C045F06CC048F06BC047F01BA207
:105290004FEF29F03B6A010E3A6E68EF29F02F6A52
:1052A0002E6A2D6A2C6A336A326AC3C031F0C2C0DA
:1052B00030F031AE5EEF29F03206330633C037F0FE
:1052C00032C036F031C035F030C034F03B6A3A6A53
:1052D0001B8C1B82C193180EDC6F85951B8ECF0E25
:1052E000CF6E2B0ECE6E01010001E36BE56B010E5C
:1052F0000101826F0001C0EF29F0AEEC13F0012C28
:1053000088EF29F0E7C01AF1CF0E0101826F00018A
:10531000C0EF29F0AEEC13F0012CB1EF29F0010140
:105320001A53D8A497EF29F01B9A98EF29F01B8AFB
:10533000610EC76F0001F1EC13F001017E1DC56F16
:10534000C52B0001C5C1C7F1F1EC13F05A0E0101E4
:10535000826F802B0001E36BE56B010E0101826F10
:105360000001C0EF29F0090E0101826F0001C0EFBA
:1053700029F0E6EC13F0C0EF29F00300BDEF29F0AF
:105380001CEF2CF0FFFFF86AD09E0D8EEA6AE96AE6
:10539000070EC16E156A166A010E176E186A196A31
:1053A0001A6A150EAF6E260EAC6E900EAB6E1B8099
:1053B0001B921B941B961B981B9A859DFF0EE26FF8
:1053C000F29CF29EF2BEE1EF29F081B2ECEF29F0FF
:1053D000FE0E016E21EF2AF081B4F3EF29F0FE0EEC
:1053E000016E21EF2AF082B4FAEF29F0FE0E016E71
:1053F00021EF2AF0060EC16E8050070B0101836F6A
:10540000C16A8353D8B408EF2AF0000E09EF2AF0DE
:10541000010E846F83510608D8A012EF2AF0000E07
:1054200013EF2AF0010E8411000AD8B41EEF2AF0FF
:10543000FD0E016E000121EF2AF001018351016E82
:10544000000101C0E2F0E251FB08D8B02BEF2AF0D6
:10545000030028EF2AF0FF0E926EC16A3F0E936E92
:10546000FF0E946EBE6B859FBF6BC06BD190C60E56
:10547000D56EB50ECD6ED76A3D0ED66ECF0ECF6E01
:105480002B0ECE6E9D80F28AB76BB66BB56BB46B8C
:10549000BD6BBC6B8150300BB36FF286010E010106
:1054A000826F9D96C66AFF0EC96EC69A928A350EA5
:1054B000C66E400EC76EC76A948A010E806F0001E7
:1054C000E56B9D86FEEF01F0E2C083F183C189F0B8
:1054D000DE6BC36BC26BC96BC86BC76BC66BC56B2E
:1054E000C46BDC6BDD6BD46B1E0ED36F7F0ED96F7C
:1054F000DA6F040E866F010E876F640E886F426A42
:10550000416A446A436A466A456A486A476A4A6A1F
:10551000496A4C6A4B6A4E6A4D6A506A4F6A526ACF
:10552000516A546A536A566A556A586A576A5A6A7F
:10553000596A5C6A5B6A5E6A5D6A606A5F6A396A58
:10554000386A336A326A316A306A376A366A356A6B
:10555000346A2F6A2E6A2D6A2C6A276A266A256A9F
:10556000246AD66BB40ED56FD86BD76F040EDB6F81
:105570008599859B010EA66FA76BA86BA96BAA6B7B
:10558000A56BA46BA36BA26BAE6BAD6BAC6BAB6B83
:10559000B06BFF0EAF6F0101846B84510408D8A07B
:1055A000EDEF2AF08F6B000184C18EF10101916B48
:1055B000040E906F000113EC02F002C003F00150E2
:1055C0008E0FE96E000E0220EA6EEF6AEC6AEC6A5A
:1055D000EC6A0101842BCDEF2AF08351006E010E9D
:1055E000005C0001D8B410EF2BF0020E005CD8B4C0
:1055F00020EF2BF0030E005CD8B430EF2BF0040E3C
:10560000005CD8B440EF2BF0050E005CD8B44FEF2F
:105610002BF0060E005CD8B45FEF2BF06FEF2BF091
:105620000F0E866F020E876F640E886F7F0ED96F24
:10563000DA6F920E1D6E3C0EC36FC26B71EF2BF0D2
:10564000070E866F020E876F640E886F7F0ED96F0C
:10565000DA6F990E1D6E2F0EC36FC26B71EF2BF0B8
:105660000F0E866F020E876F640E886F7F0ED96FE4
:10567000DA6F780E1D6E2F0EC36FC26B71EF2BF0B9
:10568000020E866F876F640E886F7F0ED96FDA6F98
:105690006E0E1D6E180EC36FC26B71EF2BF0070EEE
:1056A000866F020E876F640E886F7F0ED96FDA6F78
:1056B000480E1D6E180EC36FC26B71EF2BF0040EF7
:1056C000866F020E876F640E886F7F0ED96FDA6F58
:1056D000480E1D6E180EC36FC26B71EF2BF071EF89
:1056E0002BF01B92C183406AC3C0E1F0C2C0E0F05E
:1056F0002B6A2A6AC3C029F0C2C028F029AE83EF02
:105700002BF02A062B06336A326AC3C031F0C2C0BE
:1057100030F031AE8EEF2BF03206330633C037F067
:1057200032C036F031C035F030C034F0CE6BCD6BC6
:10573000E1C0CBF0E0C0CAF0C3C086F1C2C085F1C1
:10574000026A036A03C0B7F002C0B6F086C1B5F0C2
:1057500085C1B4F0026A036A03C0BBF002C0BAF0AC
:1057600086C1B9F085C1B8F0BD6BBC6B28EF02F003
:1057700085978595859185931B9E1B9C3E6A3F6A04
:10578000030E1F6E200E1E6E010E216EF40E206E93
:10579000320E226E500E236EC16AC19CC250380B6D
:1057A000C109C26E200E016EC250C70B0110C26E3D
:1057B000C00EF21236EF02F085AFE9EF2BF0C053C6
:1057C000D8A4E9EF2BF0BE2B010EC06F78EF03F0E9
:1057D000859FC053D8B405EF2CF0010EC05DFD0FBE
:1057E000D8B003EF2CF0030F1FEF2CF0C02B03EF0A
:1057F0002CF0ADEF0CF0C02B03EF2CF028EF13F0E2
:10580000C06B03EF2CF01CEF2CF0BF2BC195C197A0
:1058100088EF14F0000EC1B5010E0108D8A413EFF3
:105820002CF0BCEF1DF0000EC1B7010E0108D8A48A
:105830001CEF2CF068EF20F0DAEF2BF00300FFFFF5
:10584000F2CF0EF0F29EE824690FF66E580EF76E56
:10585000D8B0F72A0A00FFFFF550FA6E0800FFFFE4
:0E586000F5500EBEF28EF96EEC57F257FC5763
:00000001FF
;PIC18F252
